Archive member included because of file (symbol)

H:\PIC\TestEx16\RPanel\GOL.a(GOLFontDefault.o)
                              H:\PIC\TestEx16\RPanel\Objects\TouchScreen.o (GOLFontDefault)
H:\PIC\TestEx16\RPanel\GOL.a(Primitive.o)
                              H:\PIC\TestEx16\RPanel\Objects\TouchScreen.o (Line)
H:\PIC\TestEx16\RPanel\GOL.a(S6d0129L.o)
                              H:\PIC\TestEx16\RPanel\Objects\TouchScreen.o (DelayMs)
H:\PIC\TestEx16\RPanel\GOL.a(GOL.o)
                              H:\PIC\TestEx16\RPanel\Objects\makeSchemes.o (GOLCreateScheme)
H:\PIC\TestEx16\RPanel\GOL.a(Window.o)
                              H:\PIC\TestEx16\RPanel\Objects\makePage.o (WndCreate)
H:\PIC\TestEx16\RPanel\GOL.a(RoundDial.o)
                              H:\PIC\TestEx16\RPanel\Objects\makePage.o (RdiaCreate)
H:\PIC\TestEx16\RPanel\GOL.a(Button.o)
                              H:\PIC\TestEx16\RPanel\Objects\makePage.o (BtnCreate)
H:\PIC\TestEx16\RPanel\GOL.a(StaticText.o)
                              H:\PIC\TestEx16\RPanel\Objects\makePage.o (StCreate)
H:\PIC\TestEx16\RPanel\GOL.a(ListBox.o)
                              H:\PIC\TestEx16\RPanel\GOL.a(GOL.o) (LbDelItemsList)
H:\PIC\TestEx16\RPanel\GOL.a(CheckBox.o)
                              H:\PIC\TestEx16\RPanel\GOL.a(GOL.o) (CbMsgDefault)
H:\PIC\TestEx16\RPanel\GOL.a(RadioButton.o)
                              H:\PIC\TestEx16\RPanel\GOL.a(GOL.o) (RbMsgDefault)
H:\PIC\TestEx16\RPanel\GOL.a(EditBox.o)
                              H:\PIC\TestEx16\RPanel\GOL.a(GOL.o) (EbTranslateMsg)
H:\PIC\TestEx16\RPanel\GOL.a(Slider.o)
                              H:\PIC\TestEx16\RPanel\GOL.a(GOL.o) (SldMsgDefault)
H:\PIC\TestEx16\RPanel\GOL.a(Picture.o)
                              H:\PIC\TestEx16\RPanel\GOL.a(GOL.o) (PictTranslateMsg)
H:\PIC\TestEx16\RPanel\GOL.a(GroupBox.o)
                              H:\PIC\TestEx16\RPanel\GOL.a(GOL.o) (GbTranslateMsg)
H:\PIC\TestEx16\RPanel\GOL.a(Meter.o)
                              H:\PIC\TestEx16\RPanel\GOL.a(GOL.o) (MtrMsgDefault)
H:\PIC\TestEx16\RPanel\GOL.a(CustomControlDemo.o)
                              H:\PIC\TestEx16\RPanel\GOL.a(GOL.o) (CcTranslateMsg)
i:/usb/microchip/mplab c30/bin/../lib\libpic30-coff.a(crt1.o)
                              (_resetALT)
i:/usb/microchip/mplab c30/bin/../lib\libpic30-coff.a(crt0.o)
                              (_resetPRI)
i:/usb/microchip/mplab c30/bin/../lib\libm-coff.a(divsi3.o)
                              H:\PIC\TestEx16\RPanel\Objects\TouchScreen.o (__divsi3)
i:/usb/microchip/mplab c30/bin/../lib\libm-coff.a(udivsi3.o)
                              H:\PIC\TestEx16\RPanel\Objects\ProgressBar.o (__udivsi3)
i:/usb/microchip/mplab c30/bin/../lib\libm-coff.a(floatsisf.o)
                              H:\PIC\TestEx16\RPanel\GOL.a(RoundDial.o) (__floatsisf)
i:/usb/microchip/mplab c30/bin/../lib\libm-coff.a(sqrtf.o)
                              H:\PIC\TestEx16\RPanel\GOL.a(RoundDial.o) (sqrtf)
i:/usb/microchip/mplab c30/bin/../lib\libm-coff.a(fixsfsi.o)
                              H:\PIC\TestEx16\RPanel\GOL.a(RoundDial.o) (__fixsfsi)
i:/usb/microchip/mplab c30/bin/../lib\libm-coff.a(mulsf3.o)
                              H:\PIC\TestEx16\RPanel\GOL.a(Meter.o) (__mulsf3)
i:/usb/microchip/mplab c30/bin/../lib\libm-coff.a(cosf.o)
                              H:\PIC\TestEx16\RPanel\GOL.a(Meter.o) (cosf)
i:/usb/microchip/mplab c30/bin/../lib\libm-coff.a(sinf.o)
                              H:\PIC\TestEx16\RPanel\GOL.a(Meter.o) (sinf)
i:/usb/microchip/mplab c30/bin/../lib\libm-coff.a(divsf3.o)
                              H:\PIC\TestEx16\RPanel\GOL.a(Meter.o) (__divsf3)
i:/usb/microchip/mplab c30/bin/../lib\libm-coff.a(fpack.o)
                              i:/usb/microchip/mplab c30/bin/../lib\libm-coff.a(floatsisf.o) (_fpack)
i:/usb/microchip/mplab c30/bin/../lib\libm-coff.a(funpack.o)
                              i:/usb/microchip/mplab c30/bin/../lib\libm-coff.a(sqrtf.o) (_funpack)
i:/usb/microchip/mplab c30/bin/../lib\libm-coff.a(futil.o)
                              i:/usb/microchip/mplab c30/bin/../lib\libm-coff.a(mulsf3.o) (_fPropagateNaN)
i:/usb/microchip/mplab c30/bin/../lib\libm-coff.a(errno.o)
                              i:/usb/microchip/mplab c30/bin/../lib\libm-coff.a(sqrtf.o) (errno)
i:/usb/microchip/mplab c30/bin/../lib\libm-coff.a(funpack2.o)
                              i:/usb/microchip/mplab c30/bin/../lib\libm-coff.a(mulsf3.o) (_funpack2)
i:/usb/microchip/mplab c30/bin/../lib\libm-coff.a(sincosf.o)
                              i:/usb/microchip/mplab c30/bin/../lib\libm-coff.a(cosf.o) (_sincosf)
i:/usb/microchip/mplab c30/bin/../lib\libm-coff.a(feqltle.o)
                              i:/usb/microchip/mplab c30/bin/../lib\libm-coff.a(sincosf.o) (__ltsf2)
i:/usb/microchip/mplab c30/bin/../lib\libm-coff.a(fmodf.o)
                              i:/usb/microchip/mplab c30/bin/../lib\libm-coff.a(sincosf.o) (fmodf)
i:/usb/microchip/mplab c30/bin/../lib\libm-coff.a(addsf3.o)
                              i:/usb/microchip/mplab c30/bin/../lib\libm-coff.a(sincosf.o) (__subsf3)
i:/usb/microchip/mplab c30/bin/../lib\libm-coff.a(fcompare.o)
                              i:/usb/microchip/mplab c30/bin/../lib\libm-coff.a(feqltle.o) (_fcompare)
i:/usb/microchip/mplab c30/bin/../lib\libm-coff.a(fmodrem.o)
                              i:/usb/microchip/mplab c30/bin/../lib\libm-coff.a(fmodf.o) (_fmodrem)
i:/usb/microchip/mplab c30/bin/../lib\libc-coff.a(strlen.o)
                              H:\PIC\TestEx16\RPanel\Objects\stringSubs.o (strlen)
i:/usb/microchip/mplab c30/bin/../lib\libc-coff.a(strcat.o)
                              H:\PIC\TestEx16\RPanel\Objects\makePage.o (strcat)
i:/usb/microchip/mplab c30/bin/../lib\libc-coff.a(malloc.o)
                              H:\PIC\TestEx16\RPanel\Objects\ProgressBar.o (malloc)
i:/usb/microchip/mplab c30/bin/../lib\libc-coff.a(free.o)
                              H:\PIC\TestEx16\RPanel\GOL.a(GOL.o) (free)
i:/usb/microchip/mplab c30/bin/../lib\libc-coff.a(xgetmem.o)
                              i:/usb/microchip/mplab c30/bin/../lib\libc-coff.a(malloc.o) (_Getmem)
i:/usb/microchip/mplab c30/bin/../lib\libpic30-coff.a(sbrk.o)
                              i:/usb/microchip/mplab c30/bin/../lib\libc-coff.a(xgetmem.o) (sbrk)
i:/usb/microchip/mplab c30/bin/../lib\libpic30-coff.a(brk.o)
                              i:/usb/microchip/mplab c30/bin/../lib\libpic30-coff.a(sbrk.o) (brk)


Program Memory Usage

section                    address   length (PC units)   length (bytes) (dec)
-------                    -------   -----------------   --------------------
.reset                           0                 0x4             0x6  (6)
.ivt                           0x4                0xfc           0x17a  (378)
.aivt                        0x104                0xfc           0x17a  (378)
.text                        0x200              0x8410          0xc618  (50712)
.const                      0x8610               0x52c           0x7c2  (1986)
.dinit                      0x8b3c               0xf3c          0x16da  (5850)
.init                       0x9a78                0x80            0xc0  (192)
.isr                        0x9af8                 0x2             0x3  (3)
__CONFIG2                  0x157fc                 0x2             0x3  (3)
__CONFIG1                  0x157fe                 0x2             0x3  (3)

                     Total program memory used (bytes):         0xe877  (59511) 45%


Data Memory Usage

section                    address      alignment gaps    total length  (dec)
-------                    -------      --------------    -------------------
.nbss                        0x800                   0            0x40  (64)
.nbss                        0x840                   0            0x36  (54)
.ndata                       0x876                   0            0x18  (24)
.nbss                        0x88e                   0            0x18  (24)
.nbss                        0x8a6                   0            0x18  (24)
.nbss                        0x8be                   0            0x16  (22)
.nbss                        0x8d4                   0            0x14  (20)
.nbss                        0x8e8                   0             0xc  (12)
.nbss                        0x8f4                   0             0xc  (12)
.nbss                        0x900                   0             0xa  (10)
.ndata                       0x90a                   0             0x8  (8)
.nbss                        0x912                   0             0x8  (8)
.nbss                        0x91a                   0             0x8  (8)
.nbss                        0x922                   0             0x8  (8)
.ndata                       0x92a                   0             0x6  (6)
.nbss                        0x930                   0             0x6  (6)
.nbss                        0x936                   0             0x6  (6)
.nbss                        0x93c                   0             0x6  (6)
.ndata                       0x942                   0             0x6  (6)
.ndata                       0x948                   0             0x4  (4)
.nbss                        0x94c                   0             0x4  (4)
.ndata                       0x950                   0             0x4  (4)
.nbss                        0x954                   0             0x2  (2)
.ndata                       0x956                   0             0x2  (2)
.nbss                        0x958                   0             0x2  (2)
.nbss                        0x95a                   0             0x2  (2)
.ndata                       0x95c                   0             0x2  (2)
.nbss                        0x95e                   0             0x2  (2)
.nbss                        0x960                   0             0x2  (2)
.nbss                        0x962                   0             0x2  (2)
.data                        0x964                   0          0x1580  (5504)

                        Total data memory used (bytes):         0x16e4  (5860) 71%


Dynamic Memory Usage

region                     address                      maximum length  (dec)
------                     -------                      ---------------------
heap                        0x1ee4                               0x400  (1024)
stack                       0x22e4                               0x51c  (1308)

                        Maximum dynamic memory (bytes):          0x91c  (2332)


External Symbols in Data Memory (by address):

                    0x0830                  __lineType
                    0x0832                  __lineThickness
                    0x0834                  __cursorX
                    0x0836                  __cursorY
                    0x0838                  __font
                    0x083a                  __fontFirstChar
                    0x083c                  __fontLastChar
                    0x083e                  __fontHeight
                    0x0840                  _nFreq
                    0x0842                  _szFreq
                    0x0852                  _szSetpoint
                    0x0862                  _szAGC
                    0x086a                  _nAGC
                    0x086c                  _szFilt
                    0x0874                  _nFiltState
                    0x0876                  _state
                    0x0878                  _calibration
                    0x0879                  _debounce_counter
                    0x087a                  _adcPot
                    0x087c                  _adcY
                    0x087e                  _adcX
                    0x0880                  __calYMax
                    0x0882                  __calYMin
                    0x0884                  __calXMax
                    0x0886                  __calXMin
                    0x088e                  _pSMeter
                    0x0890                  _nSUpDown
                    0x0892                  _nSLastValue
                    0x0894                  _nSOK
                    0x0896                  _nSValue
                    0x0898                  _nScheme
                    0x089a                  _nSetpoint
                    0x089c                  _nNewPage
                    0x089e                  _wnd2Scheme
                    0x08a0                  _wndScheme
                    0x08a2                  _alt4Scheme
                    0x08a4                  _alt3Scheme
                    0x08ac                  __rpnlX1
                    0x08ae                  __rpnlY1
                    0x08b0                  __rpnlX2
                    0x08b2                  __rpnlY2
                    0x08b4                  __rpnlR
                    0x08b6                  __rpnlFaceColor
                    0x08b8                  __rpnlEmbossLtColor
                    0x08ba                  __rpnlEmbossDkColor
                    0x08bc                  __rpnlEmbossSize
                    0x08e8                  __color
                    0x08ea                  __clipRgn
                    0x08ec                  __clipLeft
                    0x08ee                  __clipTop
                    0x08f0                  __clipRight
                    0x08f2                  __clipBottom
                    0x090a                  __pGolObjects
                    0x090c                  __pDefaultGolScheme
                    0x090e                  __pObjectFocused
                    0x0910                  __pRpnlBitmap
                    0x0942                  __Size_block
                    0x0944                  __Aldata
                    0x095c                  __pListButtons
                    0x0962                  ___curbrk
                    0x0964                  _L1191258975

External Symbols in Data Memory (by name):

                    0x0964                  _L1191258975
                    0x0944                  __Aldata
                    0x0942                  __Size_block
                    0x0962                  ___curbrk
                    0x0884                  __calXMax
                    0x0886                  __calXMin
                    0x0880                  __calYMax
                    0x0882                  __calYMin
                    0x08f2                  __clipBottom
                    0x08ec                  __clipLeft
                    0x08ea                  __clipRgn
                    0x08f0                  __clipRight
                    0x08ee                  __clipTop
                    0x08e8                  __color
                    0x0834                  __cursorX
                    0x0836                  __cursorY
                    0x0838                  __font
                    0x083a                  __fontFirstChar
                    0x083e                  __fontHeight
                    0x083c                  __fontLastChar
                    0x0832                  __lineThickness
                    0x0830                  __lineType
                    0x090c                  __pDefaultGolScheme
                    0x090a                  __pGolObjects
                    0x095c                  __pListButtons
                    0x090e                  __pObjectFocused
                    0x0910                  __pRpnlBitmap
                    0x08ba                  __rpnlEmbossDkColor
                    0x08b8                  __rpnlEmbossLtColor
                    0x08bc                  __rpnlEmbossSize
                    0x08b6                  __rpnlFaceColor
                    0x08b4                  __rpnlR
                    0x08ac                  __rpnlX1
                    0x08b0                  __rpnlX2
                    0x08ae                  __rpnlY1
                    0x08b2                  __rpnlY2
                    0x087a                  _adcPot
                    0x087e                  _adcX
                    0x087c                  _adcY
                    0x08a4                  _alt3Scheme
                    0x08a2                  _alt4Scheme
                    0x0878                  _calibration
                    0x0879                  _debounce_counter
                    0x086a                  _nAGC
                    0x0874                  _nFiltState
                    0x0840                  _nFreq
                    0x089c                  _nNewPage
                    0x0892                  _nSLastValue
                    0x0894                  _nSOK
                    0x0890                  _nSUpDown
                    0x0896                  _nSValue
                    0x0898                  _nScheme
                    0x089a                  _nSetpoint
                    0x088e                  _pSMeter
                    0x0876                  _state
                    0x0862                  _szAGC
                    0x086c                  _szFilt
                    0x0842                  _szFreq
                    0x0852                  _szSetpoint
                    0x089e                  _wnd2Scheme
                    0x08a0                  _wndScheme

External Symbols in Program Memory (by address):

                  0x000200                  _strlen
                  0x00020e                  _strcat
                  0x00028e                  _malloc
                  0x0002e4                  _free
                  0x00034a                  __Getmem
                  0x0003a2                  ___divsi3
                  0x0003c0                  ___udivsi3
                  0x0003e0                  ___floatsisf
                  0x000436                  _sqrtf
                  0x0004a0                  ___fixsfsi
                  0x0004e2                  ___mulsf3
                  0x00054a                  _cosf
                  0x00054e                  _sinf
                  0x000552                  ___divsf3
                  0x0005d6                  __fpack
                  0x000622                  __funpack
                  0x00064c                  __fPropagateNaN
                  0x00065e                  __fbopExit
                  0x000666                  __fbopReturnNaN
                  0x00066c                  __funpack2
                  0x00067c                  __sincosf
                  0x00074e                  ___eqsf2
                  0x00074e                  ___lesf2
                  0x00074e                  ___ltsf2
                  0x000752                  _fmodf
                  0x000756                  ___subsf3
                  0x000758                  ___addsf3
                  0x000812                  __fcompare
                  0x000848                  __fmodrem
                  0x0008e6                  __T3Interrupt
                  0x000960                  __ADC1Interrupt
                  0x0009f2                  _TouchInit
                  0x000a22                  _TouchGetX
                  0x000a4c                  _TouchGetY
                  0x000a6e                  _TouchGetMsg
                  0x000ae0                  _TouchStoreCalibration
                  0x000af8                  _TouchLoadCalibration
                  0x000b12                  _TouchGetCalPoints
                  0x000bc4                  _TouchCalibration
                  0x000e24                  _EEPROMInit
                  0x000e46                  _SPIPut
                  0x000e5a                  _EEPROMWriteEnable
                  0x000e66                  _EEPROMReadStatus
                  0x000e82                  _EEPROMWriteByte
                  0x000ec2                  _EEPROMReadByte
                  0x000ef2                  _EEPROMWriteWord
                  0x000f0e                  _EEPROMReadWord
                  0x000f28                  _EEPROMWriteArray
                  0x000ff6                  _EEPROMReadArray
                  0x00103e                  _main
                  0x0010d6                  _GOLMsgCallback
                  0x001242                  _GOLDrawCallback
                  0x001244                  __T1Interrupt
                  0x001294                  _reverse
                  0x0012ba                  _itoa
                  0x0012f0                  _makeSchemes
                  0x001556                  _formFreq
                  0x0015a2                  _formSetpoint
                  0x0015a8                  _toggleFil
                  0x0015f0                  _toggleAGC
                  0x001638                  _makePage
                  0x001a06                  _PbShortToString
                  0x001a58                  _PbCreate
                  0x001ab8                  _PbSetPos
                  0x001ac4                  _PbTranslateMsg
                  0x001af6                  _PbDraw
                  0x001cbe                  _InitGraph
                  0x001ce4                  _Arc
                  0x0021be                  _Line
                  0x0023ec                  _Bevel
                  0x002584                  _FillBevel
                  0x002776                  _DrawPoly
                  0x0027d6                  _SetFont
                  0x002806                  _OutText
                  0x002830                  _OutTextXY
                  0x002866                  _OutChar
                  0x002922                  _GetTextWidth
                  0x0029ae                  _GetTextHeight
                  0x0029d2                  _GetImageWidth
                  0x002a08                  _GetImageHeight
                  0x002a3e                  _DelayMs
                  0x002a62                  _SetReg
                  0x002a9a                  _ResetDevice
                  0x002bbc                  _PutPixel
                  0x002caa                  _GetPixel
                  0x002da2                  _Bar
                  0x002ee0                  _ClearDevice
                  0x002f7e                  _PutImage
                  0x003026                  _PutImage1BPP
                  0x003254                  _PutImage4BPP
                  0x003480                  _PutImage8BPP
                  0x0036a0                  _PutImage16BPP
                  0x00384a                  _GOLGetFocusNext
                  0x00387e                  _GOLSetFocus
                  0x0038bc                  _GOLCanBeFocused
                  0x003904                  _GOLCreateScheme
                  0x003952                  _GOLInit
                  0x00395e                  _GOLFree
                  0x003990                  _GOLFindObject
                  0x0039be                  _GOLAddObject
                  0x0039f2                  _GOLDraw
                  0x003af4                  _GOLRedrawRec
                  0x003b96                  _GOLMsg
                  0x003d78                  _GOLPanelDrawTsk
                  0x0040ae                  _WndCreate
                  0x004148                  _WndSetText
                  0x004166                  _WndTranslateMsg
                  0x00420a                  _WndDraw
                  0x0043fe                  _RdiaCreate
                  0x00449c                  _RdiaMsgDefault
                  0x0044d4                  _RdiaTranslateMsg
                  0x004784                  _RdiaDraw
                  0x0049a0                  _BtnCreate
                  0x004a6a                  _BtnSetText
                  0x004a98                  _BtnMsgDefault
                  0x004af2                  _BtnTranslateMsg
                  0x004c12                  _BtnDraw
                  0x004eea                  _StCreate
                  0x004f84                  _StSetText
                  0x004fa2                  _StTranslateMsg
                  0x00500a                  _StDraw
                  0x00522a                  _LbCreate
                  0x00532a                  _LbAddItem
                  0x0053be                  _LbDelItem
                  0x005410                  _LbDelItemsList
                  0x005434                  _LbGetSel
                  0x005464                  _LbChangeSel
                  0x0054c6                  _LbSetFocusedItem
                  0x00551e                  _LbGetFocusedItem
                  0x005560                  _LbTranslateMsg
                  0x00561c                  _LbMsgDefault
                  0x005754                  _LbDraw
                  0x005aca                  _CbCreate
                  0x005b62                  _CbSetText
                  0x005b80                  _CbMsgDefault
                  0x005bda                  _CbTranslateMsg
                  0x005ca8                  _CbDraw
                  0x005f48                  _RbCreate
                  0x006024                  _RbSetCheck
                  0x006070                  _RbGetCheck
                  0x0060a4                  _RbSetText
                  0x0060c2                  _RbMsgDefault
                  0x00612c                  _RbTranslateMsg
                  0x0061ee                  _RbDraw
                  0x006464                  _EbCreate
                  0x006514                  _EbSetText
                  0x00656a                  _EbAddChar
                  0x0065a6                  _EbDeleteChar
                  0x0065ce                  _EbTranslateMsg
                  0x006666                  _EbMsgDefault
                  0x0066c2                  _EbDraw
                  0x0068fc                  _SldCreate
                  0x00699a                  _SldSetThumbSize
                  0x0069ce                  _SldGetWidth
                  0x006a38                  _SldGetHeight
                  0x006aa2                  _SldGetMinMaxPos
                  0x006b26                  _SldSetRange
                  0x006b98                  _SldSetPage
                  0x006bdc                  _SldSetPos
                  0x006cae                  _SldMsgDefault
                  0x006dde                  _SldTranslateMsg
                  0x006edc                  _SldDraw
                  0x0073ba                  _PictCreate
                  0x00743e                  _PictTranslateMsg
                  0x00749e                  _PictDraw
                  0x00765e                  _GbCreate
                  0x00770c                  _GbTranslateMsg
                  0x007776                  _GbDraw
                  0x007a0c                  _MtrCreate
                  0x007b44                  _MtrSetVal
                  0x007b76                  _MtrMsgDefault
                  0x007b9c                  _MtrTranslateMsg
                  0x007be2                  _MtrDraw
                  0x008368                  _CcCreate
                  0x0083fc                  _CcTranslateMsg
                  0x008464                  _CcMsgDefault
                  0x008484                  _CcDraw
                  0x008824                  _L2695
                  0x008aec                  _Arial_BigNumbers
                  0x008af0                  _GOLFontDefault
                  0x008af4                  __sineTable
                  0x009a78                  __resetPRI
                  0x009af8                  __DefaultInterrupt

External Symbols in Program Memory (by name):

                  0x001ce4                  _Arc
                  0x008aec                  _Arial_BigNumbers
                  0x002da2                  _Bar
                  0x0023ec                  _Bevel
                  0x0049a0                  _BtnCreate
                  0x004c12                  _BtnDraw
                  0x004a98                  _BtnMsgDefault
                  0x004a6a                  _BtnSetText
                  0x004af2                  _BtnTranslateMsg
                  0x005aca                  _CbCreate
                  0x005ca8                  _CbDraw
                  0x005b80                  _CbMsgDefault
                  0x005b62                  _CbSetText
                  0x005bda                  _CbTranslateMsg
                  0x008368                  _CcCreate
                  0x008484                  _CcDraw
                  0x008464                  _CcMsgDefault
                  0x0083fc                  _CcTranslateMsg
                  0x002ee0                  _ClearDevice
                  0x002a3e                  _DelayMs
                  0x002776                  _DrawPoly
                  0x000e24                  _EEPROMInit
                  0x000ff6                  _EEPROMReadArray
                  0x000ec2                  _EEPROMReadByte
                  0x000e66                  _EEPROMReadStatus
                  0x000f0e                  _EEPROMReadWord
                  0x000f28                  _EEPROMWriteArray
                  0x000e82                  _EEPROMWriteByte
                  0x000e5a                  _EEPROMWriteEnable
                  0x000ef2                  _EEPROMWriteWord
                  0x00656a                  _EbAddChar
                  0x006464                  _EbCreate
                  0x0065a6                  _EbDeleteChar
                  0x0066c2                  _EbDraw
                  0x006666                  _EbMsgDefault
                  0x006514                  _EbSetText
                  0x0065ce                  _EbTranslateMsg
                  0x002584                  _FillBevel
                  0x0039be                  _GOLAddObject
                  0x0038bc                  _GOLCanBeFocused
                  0x003904                  _GOLCreateScheme
                  0x0039f2                  _GOLDraw
                  0x001242                  _GOLDrawCallback
                  0x003990                  _GOLFindObject
                  0x008af0                  _GOLFontDefault
                  0x00395e                  _GOLFree
                  0x00384a                  _GOLGetFocusNext
                  0x003952                  _GOLInit
                  0x003b96                  _GOLMsg
                  0x0010d6                  _GOLMsgCallback
                  0x003d78                  _GOLPanelDrawTsk
                  0x003af4                  _GOLRedrawRec
                  0x00387e                  _GOLSetFocus
                  0x00765e                  _GbCreate
                  0x007776                  _GbDraw
                  0x00770c                  _GbTranslateMsg
                  0x002a08                  _GetImageHeight
                  0x0029d2                  _GetImageWidth
                  0x002caa                  _GetPixel
                  0x0029ae                  _GetTextHeight
                  0x002922                  _GetTextWidth
                  0x001cbe                  _InitGraph
                  0x008824                  _L2695
                  0x00532a                  _LbAddItem
                  0x005464                  _LbChangeSel
                  0x00522a                  _LbCreate
                  0x0053be                  _LbDelItem
                  0x005410                  _LbDelItemsList
                  0x005754                  _LbDraw
                  0x00551e                  _LbGetFocusedItem
                  0x005434                  _LbGetSel
                  0x00561c                  _LbMsgDefault
                  0x0054c6                  _LbSetFocusedItem
                  0x005560                  _LbTranslateMsg
                  0x0021be                  _Line
                  0x007a0c                  _MtrCreate
                  0x007be2                  _MtrDraw
                  0x007b76                  _MtrMsgDefault
                  0x007b44                  _MtrSetVal
                  0x007b9c                  _MtrTranslateMsg
                  0x002866                  _OutChar
                  0x002806                  _OutText
                  0x002830                  _OutTextXY
                  0x001a58                  _PbCreate
                  0x001af6                  _PbDraw
                  0x001ab8                  _PbSetPos
                  0x001a06                  _PbShortToString
                  0x001ac4                  _PbTranslateMsg
                  0x0073ba                  _PictCreate
                  0x00749e                  _PictDraw
                  0x00743e                  _PictTranslateMsg
                  0x002f7e                  _PutImage
                  0x0036a0                  _PutImage16BPP
                  0x003026                  _PutImage1BPP
                  0x003254                  _PutImage4BPP
                  0x003480                  _PutImage8BPP
                  0x002bbc                  _PutPixel
                  0x005f48                  _RbCreate
                  0x0061ee                  _RbDraw
                  0x006070                  _RbGetCheck
                  0x0060c2                  _RbMsgDefault
                  0x006024                  _RbSetCheck
                  0x0060a4                  _RbSetText
                  0x00612c                  _RbTranslateMsg
                  0x0043fe                  _RdiaCreate
                  0x004784                  _RdiaDraw
                  0x00449c                  _RdiaMsgDefault
                  0x0044d4                  _RdiaTranslateMsg
                  0x002a9a                  _ResetDevice
                  0x000e46                  _SPIPut
                  0x0027d6                  _SetFont
                  0x002a62                  _SetReg
                  0x0068fc                  _SldCreate
                  0x006edc                  _SldDraw
                  0x006a38                  _SldGetHeight
                  0x006aa2                  _SldGetMinMaxPos
                  0x0069ce                  _SldGetWidth
                  0x006cae                  _SldMsgDefault
                  0x006b98                  _SldSetPage
                  0x006bdc                  _SldSetPos
                  0x006b26                  _SldSetRange
                  0x00699a                  _SldSetThumbSize
                  0x006dde                  _SldTranslateMsg
                  0x004eea                  _StCreate
                  0x00500a                  _StDraw
                  0x004f84                  _StSetText
                  0x004fa2                  _StTranslateMsg
                  0x000bc4                  _TouchCalibration
                  0x000b12                  _TouchGetCalPoints
                  0x000a6e                  _TouchGetMsg
                  0x000a22                  _TouchGetX
                  0x000a4c                  _TouchGetY
                  0x0009f2                  _TouchInit
                  0x000af8                  _TouchLoadCalibration
                  0x000ae0                  _TouchStoreCalibration
                  0x0040ae                  _WndCreate
                  0x00420a                  _WndDraw
                  0x004148                  _WndSetText
                  0x004166                  _WndTranslateMsg
                  0x000960                  __ADC1Interrupt
                  0x009af8                  __DefaultInterrupt
                  0x00034a                  __Getmem
                  0x001244                  __T1Interrupt
                  0x0008e6                  __T3Interrupt
                  0x000758                  ___addsf3
                  0x000552                  ___divsf3
                  0x0003a2                  ___divsi3
                  0x00074e                  ___eqsf2
                  0x0004a0                  ___fixsfsi
                  0x0003e0                  ___floatsisf
                  0x00074e                  ___lesf2
                  0x00074e                  ___ltsf2
                  0x0004e2                  ___mulsf3
                  0x000756                  ___subsf3
                  0x0003c0                  ___udivsi3
                  0x00064c                  __fPropagateNaN
                  0x00065e                  __fbopExit
                  0x000666                  __fbopReturnNaN
                  0x000812                  __fcompare
                  0x000848                  __fmodrem
                  0x0005d6                  __fpack
                  0x000622                  __funpack
                  0x00066c                  __funpack2
                  0x009a78                  __resetPRI
                  0x00067c                  __sincosf
                  0x008af4                  __sineTable
                  0x00054a                  _cosf
                  0x000752                  _fmodf
                  0x001556                  _formFreq
                  0x0015a2                  _formSetpoint
                  0x0002e4                  _free
                  0x0012ba                  _itoa
                  0x00103e                  _main
                  0x001638                  _makePage
                  0x0012f0                  _makeSchemes
                  0x00028e                  _malloc
                  0x001294                  _reverse
                  0x00054e                  _sinf
                  0x000436                  _sqrtf
                  0x00020e                  _strcat
                  0x000200                  _strlen
                  0x0015f0                  _toggleAGC
                  0x0015a8                  _toggleFil

Memory Configuration

Name             Origin             Length             Attributes
data             0x000800           0x002000           a !xr
reset            0x000000           0x000004  
ivt              0x000004           0x0000fc  
aivt             0x000104           0x0000fc  
program          0x000200           0x0155fc           xr
config2          0x0157fc           0x000002  
config1          0x0157fe           0x000002  
*default*        0x000000           0xffffffff  

Linker script and memory map

LOAD H:\PIC\TestEx16\RPanel\Objects\TouchScreen.o
LOAD H:\PIC\TestEx16\RPanel\Objects\EEPROM.o
LOAD H:\PIC\TestEx16\RPanel\Objects\RPanel_main.o
LOAD H:\PIC\TestEx16\RPanel\Objects\configbits.o
LOAD H:\PIC\TestEx16\RPanel\Objects\stringSubs.o
LOAD H:\PIC\TestEx16\RPanel\Objects\makeSchemes.o
LOAD H:\PIC\TestEx16\RPanel\Objects\makePage.o
LOAD H:\PIC\TestEx16\RPanel\Objects\ProgressBar.o
LOAD H:\PIC\TestEx16\RPanel\Objects\NumBFont.o
LOAD H:\PIC\TestEx16\RPanel\GOL.a
                    0x157fc                  __CONFIG2 = 0x157fc
                    0x157fe                  __CONFIG1 = 0x157fe
                    0x0004                  __IVT_BASE = 0x4
                    0x0104                  __AIVT_BASE = 0x104
                    0x0800                  __DATA_BASE = 0x800
                    0x0200                  __CODE_BASE = 0x200

.reset            0x000000          0x4
                  0x000000          0x2 SHORT 0x9a78 <code 336> (__reset)
                  0x000001          0x2 SHORT 0x4
                  0x000002          0x2 SHORT 0x0 ((<code 336> (__reset) >> 0x10) & 0x7f)
                  0x000003          0x2 SHORT 0x0

.text             0x000200       0x8410
 *(.handle)
 *(.libc)
 .libc            0x000200          0xe i:/usb/microchip/mplab c30/bin/../lib\libc-coff.a(strlen.o)
                  0x000200                  strlen
 .libc            0x00020e         0x1e i:/usb/microchip/mplab c30/bin/../lib\libc-coff.a(strcat.o)
                  0x00020e                  strcat
 .libc            0x00022c         0xb8 i:/usb/microchip/mplab c30/bin/../lib\libc-coff.a(malloc.o)
                  0x00028e                  malloc
 .libc            0x0002e4         0x66 i:/usb/microchip/mplab c30/bin/../lib\libc-coff.a(free.o)
                  0x0002e4                  free
 .libc            0x00034a          0xe i:/usb/microchip/mplab c30/bin/../lib\libc-coff.a(xgetmem.o)
                  0x00034a                  _Getmem
 .libc            0x000358         0x2c i:/usb/microchip/mplab c30/bin/../lib\libpic30-coff.a(sbrk.o)
                  0x000358                  sbrk
 .libc            0x000384         0x1e i:/usb/microchip/mplab c30/bin/../lib\libpic30-coff.a(brk.o)
                  0x000384                  brk
 *(.libm)
 .libm            0x0003a2         0x1e i:/usb/microchip/mplab c30/bin/../lib\libm-coff.a(divsi3.o)
                  0x0003a2                  __divsi3
 .libm            0x0003c0         0x20 i:/usb/microchip/mplab c30/bin/../lib\libm-coff.a(udivsi3.o)
                  0x0003c0                  __udivsi3
 .libm            0x0003e0         0x56 i:/usb/microchip/mplab c30/bin/../lib\libm-coff.a(floatsisf.o)
                  0x0003e0                  __floatsisf
 .libm            0x000436         0x6a i:/usb/microchip/mplab c30/bin/../lib\libm-coff.a(sqrtf.o)
                  0x000436                  sqrtf
 .libm            0x0004a0         0x42 i:/usb/microchip/mplab c30/bin/../lib\libm-coff.a(fixsfsi.o)
                  0x0004a0                  __fixsfsi
 .libm            0x0004e2         0x68 i:/usb/microchip/mplab c30/bin/../lib\libm-coff.a(mulsf3.o)
                  0x0004e2                  __mulsf3
 .libm            0x00054a          0x4 i:/usb/microchip/mplab c30/bin/../lib\libm-coff.a(cosf.o)
                  0x00054a                  cosf
 .libm            0x00054e          0x4 i:/usb/microchip/mplab c30/bin/../lib\libm-coff.a(sinf.o)
                  0x00054e                  sinf
 .libm            0x000552         0x84 i:/usb/microchip/mplab c30/bin/../lib\libm-coff.a(divsf3.o)
                  0x000552                  __divsf3
 .libm            0x0005d6         0x4c i:/usb/microchip/mplab c30/bin/../lib\libm-coff.a(fpack.o)
                  0x0005d6                  _fpack
 .libm            0x000622         0x2a i:/usb/microchip/mplab c30/bin/../lib\libm-coff.a(funpack.o)
                  0x000622                  _funpack
 .libm            0x00064c         0x20 i:/usb/microchip/mplab c30/bin/../lib\libm-coff.a(futil.o)
                  0x00064c                  _fPropagateNaN
                  0x00065e                  _fbopExit
                  0x000666                  _fbopReturnNaN
 .libm            0x00066c         0x10 i:/usb/microchip/mplab c30/bin/../lib\libm-coff.a(funpack2.o)
                  0x00066c                  _funpack2
 .libm            0x00067c         0xd2 i:/usb/microchip/mplab c30/bin/../lib\libm-coff.a(sincosf.o)
                  0x00067c                  _sincosf
 .libm            0x00074e          0x4 i:/usb/microchip/mplab c30/bin/../lib\libm-coff.a(feqltle.o)
                  0x00074e                  __eqsf2
                  0x00074e                  __ltsf2
                  0x00074e                  __lesf2
 .libm            0x000752          0x4 i:/usb/microchip/mplab c30/bin/../lib\libm-coff.a(fmodf.o)
                  0x000752                  fmodf
 .libm            0x000756         0xbc i:/usb/microchip/mplab c30/bin/../lib\libm-coff.a(addsf3.o)
                  0x000756                  __subsf3
                  0x000758                  __addsf3
 .libm            0x000812         0x36 i:/usb/microchip/mplab c30/bin/../lib\libm-coff.a(fcompare.o)
                  0x000812                  _fcompare
 .libm            0x000848         0x9e i:/usb/microchip/mplab c30/bin/../lib\libm-coff.a(fmodrem.o)
                  0x000848                  _fmodrem
 *(.libdsp)
 *(.lib*)
 *(.text)
 .text            0x0008e6        0x53e H:\PIC\TestEx16\RPanel\Objects\TouchScreen.o
                  0x0008e6                  _T3Interrupt
                  0x000960                  _ADC1Interrupt
                  0x0009f2                  TouchInit
                  0x000a22                  TouchGetX
                  0x000a4c                  TouchGetY
                  0x000a6e                  TouchGetMsg
                  0x000ae0                  TouchStoreCalibration
                  0x000af8                  TouchLoadCalibration
                  0x000b12                  TouchGetCalPoints
                  0x000bc4                  TouchCalibration
 .text            0x000e24        0x21a H:\PIC\TestEx16\RPanel\Objects\EEPROM.o
                  0x000e24                  EEPROMInit
                  0x000e46                  SPIPut
                  0x000e5a                  EEPROMWriteEnable
                  0x000e66                  EEPROMReadStatus
                  0x000e82                  EEPROMWriteByte
                  0x000ec2                  EEPROMReadByte
                  0x000ef2                  EEPROMWriteWord
                  0x000f0e                  EEPROMReadWord
                  0x000f28                  EEPROMWriteArray
                  0x000ff6                  EEPROMReadArray
 .text            0x00103e        0x256 H:\PIC\TestEx16\RPanel\Objects\RPanel_main.o
                  0x00103e                  main
                  0x0010d6                  GOLMsgCallback
                  0x001242                  GOLDrawCallback
                  0x001244                  _T1Interrupt
 .text            0x001294         0x5c H:\PIC\TestEx16\RPanel\Objects\stringSubs.o
                  0x001294                  reverse
                  0x0012ba                  itoa
 .text            0x0012f0        0x266 H:\PIC\TestEx16\RPanel\Objects\makeSchemes.o
                  0x0012f0                  makeSchemes
 .text            0x001556        0x4b0 H:\PIC\TestEx16\RPanel\Objects\makePage.o
                  0x001556                  formFreq
                  0x0015a2                  formSetpoint
                  0x0015a8                  toggleFil
                  0x0015f0                  toggleAGC
                  0x001638                  makePage
 .text            0x001a06        0x2b8 H:\PIC\TestEx16\RPanel\Objects\ProgressBar.o
                  0x001a06                  PbShortToString
                  0x001a58                  PbCreate
                  0x001ab8                  PbSetPos
                  0x001ac4                  PbTranslateMsg
                  0x001af6                  PbDraw
 .text            0x001cbe        0xd80 H:\PIC\TestEx16\RPanel\GOL.a(Primitive.o)
                  0x001cbe                  InitGraph
                  0x001ce4                  Arc
                  0x0021be                  Line
                  0x0023ec                  Bevel
                  0x002584                  FillBevel
                  0x002776                  DrawPoly
                  0x0027d6                  SetFont
                  0x002806                  OutText
                  0x002830                  OutTextXY
                  0x002866                  OutChar
                  0x002922                  GetTextWidth
                  0x0029ae                  GetTextHeight
                  0x0029d2                  GetImageWidth
                  0x002a08                  GetImageHeight
 .text            0x002a3e        0xe0c H:\PIC\TestEx16\RPanel\GOL.a(S6d0129L.o)
                  0x002a3e                  DelayMs
                  0x002a62                  SetReg
                  0x002a9a                  ResetDevice
                  0x002bbc                  PutPixel
                  0x002caa                  GetPixel
                  0x002da2                  Bar
                  0x002ee0                  ClearDevice
                  0x002f7e                  PutImage
                  0x003026                  PutImage1BPP
                  0x003254                  PutImage4BPP
                  0x003480                  PutImage8BPP
                  0x0036a0                  PutImage16BPP
 .text            0x00384a        0x864 H:\PIC\TestEx16\RPanel\GOL.a(GOL.o)
                  0x00384a                  GOLGetFocusNext
                  0x00387e                  GOLSetFocus
                  0x0038bc                  GOLCanBeFocused
                  0x003904                  GOLCreateScheme
                  0x003952                  GOLInit
                  0x00395e                  GOLFree
                  0x003990                  GOLFindObject
                  0x0039be                  GOLAddObject
                  0x0039f2                  GOLDraw
                  0x003af4                  GOLRedrawRec
                  0x003b96                  GOLMsg
                  0x003d78                  GOLPanelDrawTsk
 .text            0x0040ae        0x350 H:\PIC\TestEx16\RPanel\GOL.a(Window.o)
                  0x0040ae                  WndCreate
                  0x004148                  WndSetText
                  0x004166                  WndTranslateMsg
                  0x00420a                  WndDraw
 .text            0x0043fe        0x5a2 H:\PIC\TestEx16\RPanel\GOL.a(RoundDial.o)
                  0x0043fe                  RdiaCreate
                  0x00449c                  RdiaMsgDefault
                  0x0044d4                  RdiaTranslateMsg
                  0x004784                  RdiaDraw
 .text            0x0049a0        0x54a H:\PIC\TestEx16\RPanel\GOL.a(Button.o)
                  0x0049a0                  BtnCreate
                  0x004a6a                  BtnSetText
                  0x004a98                  BtnMsgDefault
                  0x004af2                  BtnTranslateMsg
                  0x004c12                  BtnDraw
 .text            0x004eea        0x340 H:\PIC\TestEx16\RPanel\GOL.a(StaticText.o)
                  0x004eea                  StCreate
                  0x004f84                  StSetText
                  0x004fa2                  StTranslateMsg
                  0x00500a                  StDraw
 .text            0x00522a        0x8a0 H:\PIC\TestEx16\RPanel\GOL.a(ListBox.o)
                  0x00522a                  LbCreate
                  0x00532a                  LbAddItem
                  0x0053be                  LbDelItem
                  0x005410                  LbDelItemsList
                  0x005434                  LbGetSel
                  0x005464                  LbChangeSel
                  0x0054c6                  LbSetFocusedItem
                  0x00551e                  LbGetFocusedItem
                  0x005560                  LbTranslateMsg
                  0x00561c                  LbMsgDefault
                  0x005754                  LbDraw
 .text            0x005aca        0x47e H:\PIC\TestEx16\RPanel\GOL.a(CheckBox.o)
                  0x005aca                  CbCreate
                  0x005b62                  CbSetText
                  0x005b80                  CbMsgDefault
                  0x005bda                  CbTranslateMsg
                  0x005ca8                  CbDraw
 .text            0x005f48        0x51c H:\PIC\TestEx16\RPanel\GOL.a(RadioButton.o)
                  0x005f48                  RbCreate
                  0x006024                  RbSetCheck
                  0x006070                  RbGetCheck
                  0x0060a4                  RbSetText
                  0x0060c2                  RbMsgDefault
                  0x00612c                  RbTranslateMsg
                  0x0061ee                  RbDraw
 .text            0x006464        0x498 H:\PIC\TestEx16\RPanel\GOL.a(EditBox.o)
                  0x006464                  EbCreate
                  0x006514                  EbSetText
                  0x00656a                  EbAddChar
                  0x0065a6                  EbDeleteChar
                  0x0065ce                  EbTranslateMsg
                  0x006666                  EbMsgDefault
                  0x0066c2                  EbDraw
 .text            0x0068fc        0xabe H:\PIC\TestEx16\RPanel\GOL.a(Slider.o)
                  0x0068fc                  SldCreate
                  0x00699a                  SldSetThumbSize
                  0x0069ce                  SldGetWidth
                  0x006a38                  SldGetHeight
                  0x006aa2                  SldGetMinMaxPos
                  0x006b26                  SldSetRange
                  0x006b98                  SldSetPage
                  0x006bdc                  SldSetPos
                  0x006cae                  SldMsgDefault
                  0x006dde                  SldTranslateMsg
                  0x006edc                  SldDraw
 .text            0x0073ba        0x2a4 H:\PIC\TestEx16\RPanel\GOL.a(Picture.o)
                  0x0073ba                  PictCreate
                  0x00743e                  PictTranslateMsg
                  0x00749e                  PictDraw
 .text            0x00765e        0x3ae H:\PIC\TestEx16\RPanel\GOL.a(GroupBox.o)
                  0x00765e                  GbCreate
                  0x00770c                  GbTranslateMsg
                  0x007776                  GbDraw
 .text            0x007a0c        0x95c H:\PIC\TestEx16\RPanel\GOL.a(Meter.o)
                  0x007a0c                  MtrCreate
                  0x007b44                  MtrSetVal
                  0x007b76                  MtrMsgDefault
                  0x007b9c                  MtrTranslateMsg
                  0x007be2                  MtrDraw
 .text            0x008368        0x2a8 H:\PIC\TestEx16\RPanel\GOL.a(CustomControlDemo.o)
                  0x008368                  CcCreate
                  0x0083fc                  CcTranslateMsg
                  0x008464                  CcMsgDefault
                  0x008484                  CcDraw

__CONFIG2         0x0157fc          0x2
 *(__CONFIG2.sec)
 __CONFIG2.sec    0x0157fc          0x2 H:\PIC\TestEx16\RPanel\Objects\configbits.o

__CONFIG1         0x0157fe          0x2
 *(__CONFIG1.sec)
 __CONFIG1.sec    0x0157fe          0x2 H:\PIC\TestEx16\RPanel\Objects\configbits.o

.comment
 *(.comment)

.debug_info
 *(.debug_info)
 *(.gnu.linkonce.wi.*)

.debug_abbrev
 *(.debug_abbrev)

.debug_line
 *(.debug_line)

.debug_frame
 *(.debug_frame)

.debug_str
 *(.debug_str)

.debug_loc
 *(.debug_loc)

.debug_macinfo
 *(.debug_macinfo)

.debug_pubnames
 *(.debug_pubnames)

.debug_ranges
 *(.debug_ranges)

.debug_aranges
 *(.debug_aranges)

.ivt              0x000004         0xfc
                  0x000004          0x4 LONG 0x9af8 DEFINED (__ReservedTrap0)?<code 336> (__ReservedTrap0):<code 336> (__DefaultInterrupt)
                  0x000006          0x4 LONG 0x9af8 DEFINED (__OscillatorFail)?<code 336> (__OscillatorFail):<code 336> (__DefaultInterrupt)
                  0x000008          0x4 LONG 0x9af8 DEFINED (__AddressError)?<code 336> (__AddressError):<code 336> (__DefaultInterrupt)
                  0x00000a          0x4 LONG 0x9af8 DEFINED (__StackError)?<code 336> (__StackError):<code 336> (__DefaultInterrupt)
                  0x00000c          0x4 LONG 0x9af8 DEFINED (__MathError)?<code 336> (__MathError):<code 336> (__DefaultInterrupt)
                  0x00000e          0x4 LONG 0x9af8 DEFINED (__ReservedTrap5)?<code 336> (__ReservedTrap5):<code 336> (__DefaultInterrupt)
                  0x000010          0x4 LONG 0x9af8 DEFINED (__ReservedTrap6)?<code 336> (__ReservedTrap6):<code 336> (__DefaultInterrupt)
                  0x000012          0x4 LONG 0x9af8 DEFINED (__ReservedTrap7)?<code 336> (__ReservedTrap7):<code 336> (__DefaultInterrupt)
                  0x000014          0x4 LONG 0x9af8 DEFINED (__INT0Interrupt)?<code 336> (__INT0Interrupt):<code 336> (__DefaultInterrupt)
                  0x000016          0x4 LONG 0x9af8 DEFINED (__IC1Interrupt)?<code 336> (__IC1Interrupt):<code 336> (__DefaultInterrupt)
                  0x000018          0x4 LONG 0x9af8 DEFINED (__OC1Interrupt)?<code 336> (__OC1Interrupt):<code 336> (__DefaultInterrupt)
                  0x00001a          0x4 LONG 0x1244 DEFINED (__T1Interrupt)?<code 336> (__T1Interrupt):<code 336> (__DefaultInterrupt)
                  0x00001c          0x4 LONG 0x9af8 DEFINED (__Interrupt4)?<code 336> (__Interrupt4):<code 336> (__DefaultInterrupt)
                  0x00001e          0x4 LONG 0x9af8 DEFINED (__IC2Interrupt)?<code 336> (__IC2Interrupt):<code 336> (__DefaultInterrupt)
                  0x000020          0x4 LONG 0x9af8 DEFINED (__OC2Interrupt)?<code 336> (__OC2Interrupt):<code 336> (__DefaultInterrupt)
                  0x000022          0x4 LONG 0x9af8 DEFINED (__T2Interrupt)?<code 336> (__T2Interrupt):<code 336> (__DefaultInterrupt)
                  0x000024          0x4 LONG 0x8e6 DEFINED (__T3Interrupt)?<code 336> (__T3Interrupt):<code 336> (__DefaultInterrupt)
                  0x000026          0x4 LONG 0x9af8 DEFINED (__SPI1ErrInterrupt)?<code 336> (__SPI1ErrInterrupt):<code 336> (__DefaultInterrupt)
                  0x000028          0x4 LONG 0x9af8 DEFINED (__SPI1Interrupt)?<code 336> (__SPI1Interrupt):<code 336> (__DefaultInterrupt)
                  0x00002a          0x4 LONG 0x9af8 DEFINED (__U1RXInterrupt)?<code 336> (__U1RXInterrupt):<code 336> (__DefaultInterrupt)
                  0x00002c          0x4 LONG 0x9af8 DEFINED (__U1TXInterrupt)?<code 336> (__U1TXInterrupt):<code 336> (__DefaultInterrupt)
                  0x00002e          0x4 LONG 0x960 DEFINED (__ADC1Interrupt)?<code 336> (__ADC1Interrupt):<code 336> (__DefaultInterrupt)
                  0x000030          0x4 LONG 0x9af8 DEFINED (__Interrupt14)?<code 336> (__Interrupt14):<code 336> (__DefaultInterrupt)
                  0x000032          0x4 LONG 0x9af8 DEFINED (__Interrupt15)?<code 336> (__Interrupt15):<code 336> (__DefaultInterrupt)
                  0x000034          0x4 LONG 0x9af8 DEFINED (__SI2C1Interrupt)?<code 336> (__SI2C1Interrupt):<code 336> (__DefaultInterrupt)
                  0x000036          0x4 LONG 0x9af8 DEFINED (__MI2C1Interrupt)?<code 336> (__MI2C1Interrupt):<code 336> (__DefaultInterrupt)
                  0x000038          0x4 LONG 0x9af8 DEFINED (__CompInterrupt)?<code 336> (__CompInterrupt):<code 336> (__DefaultInterrupt)
                  0x00003a          0x4 LONG 0x9af8 DEFINED (__CNInterrupt)?<code 336> (__CNInterrupt):<code 336> (__DefaultInterrupt)
                  0x00003c          0x4 LONG 0x9af8 DEFINED (__INT1Interrupt)?<code 336> (__INT1Interrupt):<code 336> (__DefaultInterrupt)
                  0x00003e          0x4 LONG 0x9af8 DEFINED (__Interrupt21)?<code 336> (__Interrupt21):<code 336> (__DefaultInterrupt)
                  0x000040          0x4 LONG 0x9af8 DEFINED (__Interrupt22)?<code 336> (__Interrupt22):<code 336> (__DefaultInterrupt)
                  0x000042          0x4 LONG 0x9af8 DEFINED (__Interrupt23)?<code 336> (__Interrupt23):<code 336> (__DefaultInterrupt)
                  0x000044          0x4 LONG 0x9af8 DEFINED (__Interrupt24)?<code 336> (__Interrupt24):<code 336> (__DefaultInterrupt)
                  0x000046          0x4 LONG 0x9af8 DEFINED (__OC3Interrupt)?<code 336> (__OC3Interrupt):<code 336> (__DefaultInterrupt)
                  0x000048          0x4 LONG 0x9af8 DEFINED (__OC4Interrupt)?<code 336> (__OC4Interrupt):<code 336> (__DefaultInterrupt)
                  0x00004a          0x4 LONG 0x9af8 DEFINED (__T4Interrupt)?<code 336> (__T4Interrupt):<code 336> (__DefaultInterrupt)
                  0x00004c          0x4 LONG 0x9af8 DEFINED (__T5Interrupt)?<code 336> (__T5Interrupt):<code 336> (__DefaultInterrupt)
                  0x00004e          0x4 LONG 0x9af8 DEFINED (__INT2Interrupt)?<code 336> (__INT2Interrupt):<code 336> (__DefaultInterrupt)
                  0x000050          0x4 LONG 0x9af8 DEFINED (__U2RXInterrupt)?<code 336> (__U2RXInterrupt):<code 336> (__DefaultInterrupt)
                  0x000052          0x4 LONG 0x9af8 DEFINED (__U2TXInterrupt)?<code 336> (__U2TXInterrupt):<code 336> (__DefaultInterrupt)
                  0x000054          0x4 LONG 0x9af8 DEFINED (__SPI2ErrInterrupt)?<code 336> (__SPI2ErrInterrupt):<code 336> (__DefaultInterrupt)
                  0x000056          0x4 LONG 0x9af8 DEFINED (__SPI2Interrupt)?<code 336> (__SPI2Interrupt):<code 336> (__DefaultInterrupt)
                  0x000058          0x4 LONG 0x9af8 DEFINED (__Interrupt34)?<code 336> (__Interrupt34):<code 336> (__DefaultInterrupt)
                  0x00005a          0x4 LONG 0x9af8 DEFINED (__Interrupt35)?<code 336> (__Interrupt35):<code 336> (__DefaultInterrupt)
                  0x00005c          0x4 LONG 0x9af8 DEFINED (__Interrupt36)?<code 336> (__Interrupt36):<code 336> (__DefaultInterrupt)
                  0x00005e          0x4 LONG 0x9af8 DEFINED (__IC3Interrupt)?<code 336> (__IC3Interrupt):<code 336> (__DefaultInterrupt)
                  0x000060          0x4 LONG 0x9af8 DEFINED (__IC4Interrupt)?<code 336> (__IC4Interrupt):<code 336> (__DefaultInterrupt)
                  0x000062          0x4 LONG 0x9af8 DEFINED (__IC5Interrupt)?<code 336> (__IC5Interrupt):<code 336> (__DefaultInterrupt)
                  0x000064          0x4 LONG 0x9af8 DEFINED (__Interrupt40)?<code 336> (__Interrupt40):<code 336> (__DefaultInterrupt)
                  0x000066          0x4 LONG 0x9af8 DEFINED (__OC5Interrupt)?<code 336> (__OC5Interrupt):<code 336> (__DefaultInterrupt)
                  0x000068          0x4 LONG 0x9af8 DEFINED (__Interrupt42)?<code 336> (__Interrupt42):<code 336> (__DefaultInterrupt)
                  0x00006a          0x4 LONG 0x9af8 DEFINED (__Interrupt43)?<code 336> (__Interrupt43):<code 336> (__DefaultInterrupt)
                  0x00006c          0x4 LONG 0x9af8 DEFINED (__Interrupt44)?<code 336> (__Interrupt44):<code 336> (__DefaultInterrupt)
                  0x00006e          0x4 LONG 0x9af8 DEFINED (__PMPInterrupt)?<code 336> (__PMPInterrupt):<code 336> (__DefaultInterrupt)
                  0x000070          0x4 LONG 0x9af8 DEFINED (__Interrupt46)?<code 336> (__Interrupt46):<code 336> (__DefaultInterrupt)
                  0x000072          0x4 LONG 0x9af8 DEFINED (__Interrupt47)?<code 336> (__Interrupt47):<code 336> (__DefaultInterrupt)
                  0x000074          0x4 LONG 0x9af8 DEFINED (__Interrupt48)?<code 336> (__Interrupt48):<code 336> (__DefaultInterrupt)
                  0x000076          0x4 LONG 0x9af8 DEFINED (__SI2C2Interrupt)?<code 336> (__SI2C2Interrupt):<code 336> (__DefaultInterrupt)
                  0x000078          0x4 LONG 0x9af8 DEFINED (__MI2C2Interrupt)?<code 336> (__MI2C2Interrupt):<code 336> (__DefaultInterrupt)
                  0x00007a          0x4 LONG 0x9af8 DEFINED (__Interrupt51)?<code 336> (__Interrupt51):<code 336> (__DefaultInterrupt)
                  0x00007c          0x4 LONG 0x9af8 DEFINED (__Interrupt52)?<code 336> (__Interrupt52):<code 336> (__DefaultInterrupt)
                  0x00007e          0x4 LONG 0x9af8 DEFINED (__INT3Interrupt)?<code 336> (__INT3Interrupt):<code 336> (__DefaultInterrupt)
                  0x000080          0x4 LONG 0x9af8 DEFINED (__INT4Interrupt)?<code 336> (__INT4Interrupt):<code 336> (__DefaultInterrupt)
                  0x000082          0x4 LONG 0x9af8 DEFINED (__Interrupt55)?<code 336> (__Interrupt55):<code 336> (__DefaultInterrupt)
                  0x000084          0x4 LONG 0x9af8 DEFINED (__Interrupt56)?<code 336> (__Interrupt56):<code 336> (__DefaultInterrupt)
                  0x000086          0x4 LONG 0x9af8 DEFINED (__Interrupt57)?<code 336> (__Interrupt57):<code 336> (__DefaultInterrupt)
                  0x000088          0x4 LONG 0x9af8 DEFINED (__Interrupt58)?<code 336> (__Interrupt58):<code 336> (__DefaultInterrupt)
                  0x00008a          0x4 LONG 0x9af8 DEFINED (__Interrupt59)?<code 336> (__Interrupt59):<code 336> (__DefaultInterrupt)
                  0x00008c          0x4 LONG 0x9af8 DEFINED (__Interrupt60)?<code 336> (__Interrupt60):<code 336> (__DefaultInterrupt)
                  0x00008e          0x4 LONG 0x9af8 DEFINED (__Interrupt61)?<code 336> (__Interrupt61):<code 336> (__DefaultInterrupt)
                  0x000090          0x4 LONG 0x9af8 DEFINED (__RTCCInterrupt)?<code 336> (__RTCCInterrupt):<code 336> (__DefaultInterrupt)
                  0x000092          0x4 LONG 0x9af8 DEFINED (__Interrupt63)?<code 336> (__Interrupt63):<code 336> (__DefaultInterrupt)
                  0x000094          0x4 LONG 0x9af8 DEFINED (__Interrupt64)?<code 336> (__Interrupt64):<code 336> (__DefaultInterrupt)
                  0x000096          0x4 LONG 0x9af8 DEFINED (__U1ErrInterrupt)?<code 336> (__U1ErrInterrupt):<code 336> (__DefaultInterrupt)
                  0x000098          0x4 LONG 0x9af8 DEFINED (__U2ErrInterrupt)?<code 336> (__U2ErrInterrupt):<code 336> (__DefaultInterrupt)
                  0x00009a          0x4 LONG 0x9af8 DEFINED (__CRCInterrupt)?<code 336> (__CRCInterrupt):<code 336> (__DefaultInterrupt)
                  0x00009c          0x4 LONG 0x9af8 DEFINED (__Interrupt68)?<code 336> (__Interrupt68):<code 336> (__DefaultInterrupt)
                  0x00009e          0x4 LONG 0x9af8 DEFINED (__Interrupt69)?<code 336> (__Interrupt69):<code 336> (__DefaultInterrupt)
                  0x0000a0          0x4 LONG 0x9af8 DEFINED (__Interrupt70)?<code 336> (__Interrupt70):<code 336> (__DefaultInterrupt)
                  0x0000a2          0x4 LONG 0x9af8 DEFINED (__Interrupt71)?<code 336> (__Interrupt71):<code 336> (__DefaultInterrupt)
                  0x0000a4          0x4 LONG 0x9af8 DEFINED (__Interrupt72)?<code 336> (__Interrupt72):<code 336> (__DefaultInterrupt)
                  0x0000a6          0x4 LONG 0x9af8 DEFINED (__Interrupt73)?<code 336> (__Interrupt73):<code 336> (__DefaultInterrupt)
                  0x0000a8          0x4 LONG 0x9af8 DEFINED (__Interrupt74)?<code 336> (__Interrupt74):<code 336> (__DefaultInterrupt)
                  0x0000aa          0x4 LONG 0x9af8 DEFINED (__Interrupt75)?<code 336> (__Interrupt75):<code 336> (__DefaultInterrupt)
                  0x0000ac          0x4 LONG 0x9af8 DEFINED (__Interrupt76)?<code 336> (__Interrupt76):<code 336> (__DefaultInterrupt)
                  0x0000ae          0x4 LONG 0x9af8 DEFINED (__Interrupt77)?<code 336> (__Interrupt77):<code 336> (__DefaultInterrupt)
                  0x0000b0          0x4 LONG 0x9af8 DEFINED (__Interrupt78)?<code 336> (__Interrupt78):<code 336> (__DefaultInterrupt)
                  0x0000b2          0x4 LONG 0x9af8 DEFINED (__Interrupt79)?<code 336> (__Interrupt79):<code 336> (__DefaultInterrupt)
                  0x0000b4          0x4 LONG 0x9af8 DEFINED (__Interrupt80)?<code 336> (__Interrupt80):<code 336> (__DefaultInterrupt)
                  0x0000b6          0x4 LONG 0x9af8 DEFINED (__Interrupt81)?<code 336> (__Interrupt81):<code 336> (__DefaultInterrupt)
                  0x0000b8          0x4 LONG 0x9af8 DEFINED (__Interrupt82)?<code 336> (__Interrupt82):<code 336> (__DefaultInterrupt)
                  0x0000ba          0x4 LONG 0x9af8 DEFINED (__Interrupt83)?<code 336> (__Interrupt83):<code 336> (__DefaultInterrupt)
                  0x0000bc          0x4 LONG 0x9af8 DEFINED (__Interrupt84)?<code 336> (__Interrupt84):<code 336> (__DefaultInterrupt)
                  0x0000be          0x4 LONG 0x9af8 DEFINED (__Interrupt85)?<code 336> (__Interrupt85):<code 336> (__DefaultInterrupt)
                  0x0000c0          0x4 LONG 0x9af8 DEFINED (__Interrupt86)?<code 336> (__Interrupt86):<code 336> (__DefaultInterrupt)
                  0x0000c2          0x4 LONG 0x9af8 DEFINED (__Interrupt87)?<code 336> (__Interrupt87):<code 336> (__DefaultInterrupt)
                  0x0000c4          0x4 LONG 0x9af8 DEFINED (__Interrupt88)?<code 336> (__Interrupt88):<code 336> (__DefaultInterrupt)
                  0x0000c6          0x4 LONG 0x9af8 DEFINED (__Interrupt89)?<code 336> (__Interrupt89):<code 336> (__DefaultInterrupt)
                  0x0000c8          0x4 LONG 0x9af8 DEFINED (__Interrupt90)?<code 336> (__Interrupt90):<code 336> (__DefaultInterrupt)
                  0x0000ca          0x4 LONG 0x9af8 DEFINED (__Interrupt91)?<code 336> (__Interrupt91):<code 336> (__DefaultInterrupt)
                  0x0000cc          0x4 LONG 0x9af8 DEFINED (__Interrupt92)?<code 336> (__Interrupt92):<code 336> (__DefaultInterrupt)
                  0x0000ce          0x4 LONG 0x9af8 DEFINED (__Interrupt93)?<code 336> (__Interrupt93):<code 336> (__DefaultInterrupt)
                  0x0000d0          0x4 LONG 0x9af8 DEFINED (__Interrupt94)?<code 336> (__Interrupt94):<code 336> (__DefaultInterrupt)
                  0x0000d2          0x4 LONG 0x9af8 DEFINED (__Interrupt95)?<code 336> (__Interrupt95):<code 336> (__DefaultInterrupt)
                  0x0000d4          0x4 LONG 0x9af8 DEFINED (__Interrupt96)?<code 336> (__Interrupt96):<code 336> (__DefaultInterrupt)
                  0x0000d6          0x4 LONG 0x9af8 DEFINED (__Interrupt97)?<code 336> (__Interrupt97):<code 336> (__DefaultInterrupt)
                  0x0000d8          0x4 LONG 0x9af8 DEFINED (__Interrupt98)?<code 336> (__Interrupt98):<code 336> (__DefaultInterrupt)
                  0x0000da          0x4 LONG 0x9af8 DEFINED (__Interrupt99)?<code 336> (__Interrupt99):<code 336> (__DefaultInterrupt)
                  0x0000dc          0x4 LONG 0x9af8 DEFINED (__Interrupt100)?<code 336> (__Interrupt100):<code 336> (__DefaultInterrupt)
                  0x0000de          0x4 LONG 0x9af8 DEFINED (__Interrupt101)?<code 336> (__Interrupt101):<code 336> (__DefaultInterrupt)
                  0x0000e0          0x4 LONG 0x9af8 DEFINED (__Interrupt102)?<code 336> (__Interrupt102):<code 336> (__DefaultInterrupt)
                  0x0000e2          0x4 LONG 0x9af8 DEFINED (__Interrupt103)?<code 336> (__Interrupt103):<code 336> (__DefaultInterrupt)
                  0x0000e4          0x4 LONG 0x9af8 DEFINED (__Interrupt104)?<code 336> (__Interrupt104):<code 336> (__DefaultInterrupt)
                  0x0000e6          0x4 LONG 0x9af8 DEFINED (__Interrupt105)?<code 336> (__Interrupt105):<code 336> (__DefaultInterrupt)
                  0x0000e8          0x4 LONG 0x9af8 DEFINED (__Interrupt106)?<code 336> (__Interrupt106):<code 336> (__DefaultInterrupt)
                  0x0000ea          0x4 LONG 0x9af8 DEFINED (__Interrupt107)?<code 336> (__Interrupt107):<code 336> (__DefaultInterrupt)
                  0x0000ec          0x4 LONG 0x9af8 DEFINED (__Interrupt108)?<code 336> (__Interrupt108):<code 336> (__DefaultInterrupt)
                  0x0000ee          0x4 LONG 0x9af8 DEFINED (__Interrupt109)?<code 336> (__Interrupt109):<code 336> (__DefaultInterrupt)
                  0x0000f0          0x4 LONG 0x9af8 DEFINED (__Interrupt110)?<code 336> (__Interrupt110):<code 336> (__DefaultInterrupt)
                  0x0000f2          0x4 LONG 0x9af8 DEFINED (__Interrupt111)?<code 336> (__Interrupt111):<code 336> (__DefaultInterrupt)
                  0x0000f4          0x4 LONG 0x9af8 DEFINED (__Interrupt112)?<code 336> (__Interrupt112):<code 336> (__DefaultInterrupt)
                  0x0000f6          0x4 LONG 0x9af8 DEFINED (__Interrupt113)?<code 336> (__Interrupt113):<code 336> (__DefaultInterrupt)
                  0x0000f8          0x4 LONG 0x9af8 DEFINED (__Interrupt114)?<code 336> (__Interrupt114):<code 336> (__DefaultInterrupt)
                  0x0000fa          0x4 LONG 0x9af8 DEFINED (__Interrupt115)?<code 336> (__Interrupt115):<code 336> (__DefaultInterrupt)
                  0x0000fc          0x4 LONG 0x9af8 DEFINED (__Interrupt116)?<code 336> (__Interrupt116):<code 336> (__DefaultInterrupt)
                  0x0000fe          0x4 LONG 0x9af8 DEFINED (__Interrupt117)?<code 336> (__Interrupt117):<code 336> (__DefaultInterrupt)

.aivt             0x000104         0xfc
                  0x000104          0x4 LONG 0x9af8 DEFINED (__AltReservedTrap0)?<code 336> (__AltReservedTrap0):DEFINED (__ReservedTrap0)?<code 336> (__ReservedTrap0):<code 336> (__DefaultInterrupt)
                  0x000106          0x4 LONG 0x9af8 DEFINED (__AltOscillatorFail)?<code 336> (__AltOscillatorFail):DEFINED (__OscillatorFail)?<code 336> (__OscillatorFail):<code 336> (__DefaultInterrupt)
                  0x000108          0x4 LONG 0x9af8 DEFINED (__AltAddressError)?<code 336> (__AltAddressError):DEFINED (__AddressError)?<code 336> (__AddressError):<code 336> (__DefaultInterrupt)
                  0x00010a          0x4 LONG 0x9af8 DEFINED (__AltStackError)?<code 336> (__AltStackError):DEFINED (__StackError)?<code 336> (__StackError):<code 336> (__DefaultInterrupt)
                  0x00010c          0x4 LONG 0x9af8 DEFINED (__AltMathError)?<code 336> (__AltMathError):DEFINED (__MathError)?<code 336> (__MathError):<code 336> (__DefaultInterrupt)
                  0x00010e          0x4 LONG 0x9af8 DEFINED (__AltReservedTrap5)?<code 336> (__AltReservedTrap5):DEFINED (__ReservedTrap5)?<code 336> (__ReservedTrap5):<code 336> (__DefaultInterrupt)
                  0x000110          0x4 LONG 0x9af8 DEFINED (__AltReservedTrap6)?<code 336> (__AltReservedTrap6):DEFINED (__ReservedTrap6)?<code 336> (__ReservedTrap6):<code 336> (__DefaultInterrupt)
                  0x000112          0x4 LONG 0x9af8 DEFINED (__AltReservedTrap7)?<code 336> (__AltReservedTrap7):DEFINED (__ReservedTrap7)?<code 336> (__ReservedTrap7):<code 336> (__DefaultInterrupt)
                  0x000114          0x4 LONG 0x9af8 DEFINED (__AltINT0Interrupt)?<code 336> (__AltINT0Interrupt):DEFINED (__INT0Interrupt)?<code 336> (__INT0Interrupt):<code 336> (__DefaultInterrupt)
                  0x000116          0x4 LONG 0x9af8 DEFINED (__AltIC1Interrupt)?<code 336> (__AltIC1Interrupt):DEFINED (__IC1Interrupt)?<code 336> (__IC1Interrupt):<code 336> (__DefaultInterrupt)
                  0x000118          0x4 LONG 0x9af8 DEFINED (__AltOC1Interrupt)?<code 336> (__AltOC1Interrupt):DEFINED (__OC1Interrupt)?<code 336> (__OC1Interrupt):<code 336> (__DefaultInterrupt)
                  0x00011a          0x4 LONG 0x1244 DEFINED (__AltT1Interrupt)?<code 336> (__AltT1Interrupt):DEFINED (__T1Interrupt)?<code 336> (__T1Interrupt):<code 336> (__DefaultInterrupt)
                  0x00011c          0x4 LONG 0x9af8 DEFINED (__AltInterrupt4)?<code 336> (__AltInterrupt4):DEFINED (__Interrupt4)?<code 336> (__Interrupt4):<code 336> (__DefaultInterrupt)
                  0x00011e          0x4 LONG 0x9af8 DEFINED (__AltIC2Interrupt)?<code 336> (__AltIC2Interrupt):DEFINED (__IC2Interrupt)?<code 336> (__IC2Interrupt):<code 336> (__DefaultInterrupt)
                  0x000120          0x4 LONG 0x9af8 DEFINED (__AltOC2Interrupt)?<code 336> (__AltOC2Interrupt):DEFINED (__OC2Interrupt)?<code 336> (__OC2Interrupt):<code 336> (__DefaultInterrupt)
                  0x000122          0x4 LONG 0x9af8 DEFINED (__AltT2Interrupt)?<code 336> (__AltT2Interrupt):DEFINED (__T2Interrupt)?<code 336> (__T2Interrupt):<code 336> (__DefaultInterrupt)
                  0x000124          0x4 LONG 0x8e6 DEFINED (__AltT3Interrupt)?<code 336> (__AltT3Interrupt):DEFINED (__T3Interrupt)?<code 336> (__T3Interrupt):<code 336> (__DefaultInterrupt)
                  0x000126          0x4 LONG 0x9af8 DEFINED (__AltSPI1ErrInterrupt)?<code 336> (__AltSPI1ErrInterrupt):DEFINED (__SPI1ErrInterrupt)?<code 336> (__SPI1ErrInterrupt):<code 336> (__DefaultInterrupt)
                  0x000128          0x4 LONG 0x9af8 DEFINED (__AltSPI1Interrupt)?<code 336> (__AltSPI1Interrupt):DEFINED (__SPI1Interrupt)?<code 336> (__SPI1Interrupt):<code 336> (__DefaultInterrupt)
                  0x00012a          0x4 LONG 0x9af8 DEFINED (__AltU1RXInterrupt)?<code 336> (__AltU1RXInterrupt):DEFINED (__U1RXInterrupt)?<code 336> (__U1RXInterrupt):<code 336> (__DefaultInterrupt)
                  0x00012c          0x4 LONG 0x9af8 DEFINED (__AltU1TXInterrupt)?<code 336> (__AltU1TXInterrupt):DEFINED (__U1TXInterrupt)?<code 336> (__U1TXInterrupt):<code 336> (__DefaultInterrupt)
                  0x00012e          0x4 LONG 0x960 DEFINED (__AltADC1Interrupt)?<code 336> (__AltADC1Interrupt):DEFINED (__ADC1Interrupt)?<code 336> (__ADC1Interrupt):<code 336> (__DefaultInterrupt)
                  0x000130          0x4 LONG 0x9af8 DEFINED (__AltInterrupt14)?<code 336> (__AltInterrupt14):DEFINED (__Interrupt14)?<code 336> (__Interrupt14):<code 336> (__DefaultInterrupt)
                  0x000132          0x4 LONG 0x9af8 DEFINED (__AltInterrupt15)?<code 336> (__AltInterrupt15):DEFINED (__Interrupt15)?<code 336> (__Interrupt15):<code 336> (__DefaultInterrupt)
                  0x000134          0x4 LONG 0x9af8 DEFINED (__AltSI2C1Interrupt)?<code 336> (__AltSI2C1Interrupt):DEFINED (__SI2C1Interrupt)?<code 336> (__SI2C1Interrupt):<code 336> (__DefaultInterrupt)
                  0x000136          0x4 LONG 0x9af8 DEFINED (__AltMI2C1Interrupt)?<code 336> (__AltMI2C1Interrupt):DEFINED (__MI2C1Interrupt)?<code 336> (__MI2C1Interrupt):<code 336> (__DefaultInterrupt)
                  0x000138          0x4 LONG 0x9af8 DEFINED (__AltCompInterrupt)?<code 336> (__AltCompInterrupt):DEFINED (__CompInterrupt)?<code 336> (__CompInterrupt):<code 336> (__DefaultInterrupt)
                  0x00013a          0x4 LONG 0x9af8 DEFINED (__AltCNInterrupt)?<code 336> (__AltCNInterrupt):DEFINED (__CNInterrupt)?<code 336> (__CNInterrupt):<code 336> (__DefaultInterrupt)
                  0x00013c          0x4 LONG 0x9af8 DEFINED (__AltINT1Interrupt)?<code 336> (__AltINT1Interrupt):DEFINED (__INT1Interrupt)?<code 336> (__INT1Interrupt):<code 336> (__DefaultInterrupt)
                  0x00013e          0x4 LONG 0x9af8 DEFINED (__AltInterrupt21)?<code 336> (__AltInterrupt21):DEFINED (__Interrupt21)?<code 336> (__Interrupt21):<code 336> (__DefaultInterrupt)
                  0x000140          0x4 LONG 0x9af8 DEFINED (__AltInterrupt22)?<code 336> (__AltInterrupt22):DEFINED (__Interrupt22)?<code 336> (__Interrupt22):<code 336> (__DefaultInterrupt)
                  0x000142          0x4 LONG 0x9af8 DEFINED (__AltInterrupt23)?<code 336> (__AltInterrupt23):DEFINED (__Interrupt23)?<code 336> (__Interrupt23):<code 336> (__DefaultInterrupt)
                  0x000144          0x4 LONG 0x9af8 DEFINED (__AltInterrupt24)?<code 336> (__AltInterrupt24):DEFINED (__Interrupt24)?<code 336> (__Interrupt24):<code 336> (__DefaultInterrupt)
                  0x000146          0x4 LONG 0x9af8 DEFINED (__AltOC3Interrupt)?<code 336> (__AltOC3Interrupt):DEFINED (__OC3Interrupt)?<code 336> (__OC3Interrupt):<code 336> (__DefaultInterrupt)
                  0x000148          0x4 LONG 0x9af8 DEFINED (__AltOC4Interrupt)?<code 336> (__AltOC4Interrupt):DEFINED (__OC4Interrupt)?<code 336> (__OC4Interrupt):<code 336> (__DefaultInterrupt)
                  0x00014a          0x4 LONG 0x9af8 DEFINED (__AltT4Interrupt)?<code 336> (__AltT4Interrupt):DEFINED (__T4Interrupt)?<code 336> (__T4Interrupt):<code 336> (__DefaultInterrupt)
                  0x00014c          0x4 LONG 0x9af8 DEFINED (__AltT5Interrupt)?<code 336> (__AltT5Interrupt):DEFINED (__T5Interrupt)?<code 336> (__T5Interrupt):<code 336> (__DefaultInterrupt)
                  0x00014e          0x4 LONG 0x9af8 DEFINED (__AltINT2Interrupt)?<code 336> (__AltINT2Interrupt):DEFINED (__INT2Interrupt)?<code 336> (__INT2Interrupt):<code 336> (__DefaultInterrupt)
                  0x000150          0x4 LONG 0x9af8 DEFINED (__AltU2RXInterrupt)?<code 336> (__AltU2RXInterrupt):DEFINED (__U2RXInterrupt)?<code 336> (__U2RXInterrupt):<code 336> (__DefaultInterrupt)
                  0x000152          0x4 LONG 0x9af8 DEFINED (__AltU2TXInterrupt)?<code 336> (__AltU2TXInterrupt):DEFINED (__U2TXInterrupt)?<code 336> (__U2TXInterrupt):<code 336> (__DefaultInterrupt)
                  0x000154          0x4 LONG 0x9af8 DEFINED (__AltSPI2ErrInterrupt)?<code 336> (__AltSPI2ErrInterrupt):DEFINED (__SPI2ErrInterrupt)?<code 336> (__SPI2ErrInterrupt):<code 336> (__DefaultInterrupt)
                  0x000156          0x4 LONG 0x9af8 DEFINED (__AltSPI2Interrupt)?<code 336> (__AltSPI2Interrupt):DEFINED (__SPI2Interrupt)?<code 336> (__SPI2Interrupt):<code 336> (__DefaultInterrupt)
                  0x000158          0x4 LONG 0x9af8 DEFINED (__AltInterrupt34)?<code 336> (__AltInterrupt34):DEFINED (__Interrupt34)?<code 336> (__Interrupt34):<code 336> (__DefaultInterrupt)
                  0x00015a          0x4 LONG 0x9af8 DEFINED (__AltInterrupt35)?<code 336> (__AltInterrupt35):DEFINED (__Interrupt35)?<code 336> (__Interrupt35):<code 336> (__DefaultInterrupt)
                  0x00015c          0x4 LONG 0x9af8 DEFINED (__AltInterrupt36)?<code 336> (__AltInterrupt36):DEFINED (__Interrupt36)?<code 336> (__Interrupt36):<code 336> (__DefaultInterrupt)
                  0x00015e          0x4 LONG 0x9af8 DEFINED (__AltIC3Interrupt)?<code 336> (__AltIC3Interrupt):DEFINED (__IC3Interrupt)?<code 336> (__IC3Interrupt):<code 336> (__DefaultInterrupt)
                  0x000160          0x4 LONG 0x9af8 DEFINED (__AltIC4Interrupt)?<code 336> (__AltIC4Interrupt):DEFINED (__IC4Interrupt)?<code 336> (__IC4Interrupt):<code 336> (__DefaultInterrupt)
                  0x000162          0x4 LONG 0x9af8 DEFINED (__AltIC5Interrupt)?<code 336> (__AltIC5Interrupt):DEFINED (__IC5Interrupt)?<code 336> (__IC5Interrupt):<code 336> (__DefaultInterrupt)
                  0x000164          0x4 LONG 0x9af8 DEFINED (__AltInterrupt40)?<code 336> (__AltInterrupt40):DEFINED (__Interrupt40)?<code 336> (__Interrupt40):<code 336> (__DefaultInterrupt)
                  0x000166          0x4 LONG 0x9af8 DEFINED (__AltOC5Interrupt)?<code 336> (__AltOC5Interrupt):DEFINED (__OC5Interrupt)?<code 336> (__OC5Interrupt):<code 336> (__DefaultInterrupt)
                  0x000168          0x4 LONG 0x9af8 DEFINED (__AltInterrupt42)?<code 336> (__AltInterrupt42):DEFINED (__Interrupt42)?<code 336> (__Interrupt42):<code 336> (__DefaultInterrupt)
                  0x00016a          0x4 LONG 0x9af8 DEFINED (__AltInterrupt43)?<code 336> (__AltInterrupt43):DEFINED (__Interrupt43)?<code 336> (__Interrupt43):<code 336> (__DefaultInterrupt)
                  0x00016c          0x4 LONG 0x9af8 DEFINED (__AltInterrupt44)?<code 336> (__AltInterrupt44):DEFINED (__Interrupt44)?<code 336> (__Interrupt44):<code 336> (__DefaultInterrupt)
                  0x00016e          0x4 LONG 0x9af8 DEFINED (__AltPMPInterrupt)?<code 336> (__AltPMPInterrupt):DEFINED (__PMPInterrupt)?<code 336> (__PMPInterrupt):<code 336> (__DefaultInterrupt)
                  0x000170          0x4 LONG 0x9af8 DEFINED (__AltInterrupt46)?<code 336> (__AltInterrupt46):DEFINED (__Interrupt46)?<code 336> (__Interrupt46):<code 336> (__DefaultInterrupt)
                  0x000172          0x4 LONG 0x9af8 DEFINED (__AltInterrupt47)?<code 336> (__AltInterrupt47):DEFINED (__Interrupt47)?<code 336> (__Interrupt47):<code 336> (__DefaultInterrupt)
                  0x000174          0x4 LONG 0x9af8 DEFINED (__AltInterrupt48)?<code 336> (__AltInterrupt48):DEFINED (__Interrupt48)?<code 336> (__Interrupt48):<code 336> (__DefaultInterrupt)
                  0x000176          0x4 LONG 0x9af8 DEFINED (__AltSI2C2Interrupt)?<code 336> (__AltSI2C2Interrupt):DEFINED (__SI2C2Interrupt)?<code 336> (__SI2C2Interrupt):<code 336> (__DefaultInterrupt)
                  0x000178          0x4 LONG 0x9af8 DEFINED (__AltMI2C2Interrupt)?<code 336> (__AltMI2C2Interrupt):DEFINED (__MI2C2Interrupt)?<code 336> (__MI2C2Interrupt):<code 336> (__DefaultInterrupt)
                  0x00017a          0x4 LONG 0x9af8 DEFINED (__AltInterrupt51)?<code 336> (__AltInterrupt51):DEFINED (__Interrupt51)?<code 336> (__Interrupt51):<code 336> (__DefaultInterrupt)
                  0x00017c          0x4 LONG 0x9af8 DEFINED (__AltInterrupt52)?<code 336> (__AltInterrupt52):DEFINED (__Interrupt52)?<code 336> (__Interrupt52):<code 336> (__DefaultInterrupt)
                  0x00017e          0x4 LONG 0x9af8 DEFINED (__AltINT3Interrupt)?<code 336> (__AltINT3Interrupt):DEFINED (__INT3Interrupt)?<code 336> (__INT3Interrupt):<code 336> (__DefaultInterrupt)
                  0x000180          0x4 LONG 0x9af8 DEFINED (__AltINT4Interrupt)?<code 336> (__AltINT4Interrupt):DEFINED (__INT4Interrupt)?<code 336> (__INT4Interrupt):<code 336> (__DefaultInterrupt)
                  0x000182          0x4 LONG 0x9af8 DEFINED (__AltInterrupt55)?<code 336> (__AltInterrupt55):DEFINED (__Interrupt55)?<code 336> (__Interrupt55):<code 336> (__DefaultInterrupt)
                  0x000184          0x4 LONG 0x9af8 DEFINED (__AltInterrupt56)?<code 336> (__AltInterrupt56):DEFINED (__Interrupt56)?<code 336> (__Interrupt56):<code 336> (__DefaultInterrupt)
                  0x000186          0x4 LONG 0x9af8 DEFINED (__AltInterrupt57)?<code 336> (__AltInterrupt57):DEFINED (__Interrupt57)?<code 336> (__Interrupt57):<code 336> (__DefaultInterrupt)
                  0x000188          0x4 LONG 0x9af8 DEFINED (__AltInterrupt58)?<code 336> (__AltInterrupt58):DEFINED (__Interrupt58)?<code 336> (__Interrupt58):<code 336> (__DefaultInterrupt)
                  0x00018a          0x4 LONG 0x9af8 DEFINED (__AltInterrupt59)?<code 336> (__AltInterrupt59):DEFINED (__Interrupt59)?<code 336> (__Interrupt59):<code 336> (__DefaultInterrupt)
                  0x00018c          0x4 LONG 0x9af8 DEFINED (__AltInterrupt60)?<code 336> (__AltInterrupt60):DEFINED (__Interrupt60)?<code 336> (__Interrupt60):<code 336> (__DefaultInterrupt)
                  0x00018e          0x4 LONG 0x9af8 DEFINED (__AltInterrupt61)?<code 336> (__AltInterrupt61):DEFINED (__Interrupt61)?<code 336> (__Interrupt61):<code 336> (__DefaultInterrupt)
                  0x000190          0x4 LONG 0x9af8 DEFINED (__AltRTCCInterrupt)?<code 336> (__AltRTCCInterrupt):DEFINED (__RTCCInterrupt)?<code 336> (__RTCCInterrupt):<code 336> (__DefaultInterrupt)
                  0x000192          0x4 LONG 0x9af8 DEFINED (__AltInterrupt63)?<code 336> (__AltInterrupt63):DEFINED (__Interrupt63)?<code 336> (__Interrupt63):<code 336> (__DefaultInterrupt)
                  0x000194          0x4 LONG 0x9af8 DEFINED (__AltInterrupt64)?<code 336> (__AltInterrupt64):DEFINED (__Interrupt64)?<code 336> (__Interrupt64):<code 336> (__DefaultInterrupt)
                  0x000196          0x4 LONG 0x9af8 DEFINED (__AltU1ErrInterrupt)?<code 336> (__AltU1ErrInterrupt):DEFINED (__U1ErrInterrupt)?<code 336> (__U1ErrInterrupt):<code 336> (__DefaultInterrupt)
                  0x000198          0x4 LONG 0x9af8 DEFINED (__AltU2ErrInterrupt)?<code 336> (__AltU2ErrInterrupt):DEFINED (__U2ErrInterrupt)?<code 336> (__U2ErrInterrupt):<code 336> (__DefaultInterrupt)
                  0x00019a          0x4 LONG 0x9af8 DEFINED (__AltCRCInterrupt)?<code 336> (__AltCRCInterrupt):DEFINED (__CRCInterrupt)?<code 336> (__CRCInterrupt):<code 336> (__DefaultInterrupt)
                  0x00019c          0x4 LONG 0x9af8 DEFINED (__AltInterrupt68)?<code 336> (__AltInterrupt68):DEFINED (__Interrupt68)?<code 336> (__Interrupt68):<code 336> (__DefaultInterrupt)
                  0x00019e          0x4 LONG 0x9af8 DEFINED (__AltInterrupt69)?<code 336> (__AltInterrupt69):DEFINED (__Interrupt69)?<code 336> (__Interrupt69):<code 336> (__DefaultInterrupt)
                  0x0001a0          0x4 LONG 0x9af8 DEFINED (__AltInterrupt70)?<code 336> (__AltInterrupt70):DEFINED (__Interrupt70)?<code 336> (__Interrupt70):<code 336> (__DefaultInterrupt)
                  0x0001a2          0x4 LONG 0x9af8 DEFINED (__AltInterrupt71)?<code 336> (__AltInterrupt71):DEFINED (__Interrupt71)?<code 336> (__Interrupt71):<code 336> (__DefaultInterrupt)
                  0x0001a4          0x4 LONG 0x9af8 DEFINED (__AltInterrupt72)?<code 336> (__AltInterrupt72):DEFINED (__Interrupt72)?<code 336> (__Interrupt72):<code 336> (__DefaultInterrupt)
                  0x0001a6          0x4 LONG 0x9af8 DEFINED (__AltInterrupt73)?<code 336> (__AltInterrupt73):DEFINED (__Interrupt73)?<code 336> (__Interrupt73):<code 336> (__DefaultInterrupt)
                  0x0001a8          0x4 LONG 0x9af8 DEFINED (__AltInterrupt74)?<code 336> (__AltInterrupt74):DEFINED (__Interrupt74)?<code 336> (__Interrupt74):<code 336> (__DefaultInterrupt)
                  0x0001aa          0x4 LONG 0x9af8 DEFINED (__AltInterrupt75)?<code 336> (__AltInterrupt75):DEFINED (__Interrupt75)?<code 336> (__Interrupt75):<code 336> (__DefaultInterrupt)
                  0x0001ac          0x4 LONG 0x9af8 DEFINED (__AltInterrupt76)?<code 336> (__AltInterrupt76):DEFINED (__Interrupt76)?<code 336> (__Interrupt76):<code 336> (__DefaultInterrupt)
                  0x0001ae          0x4 LONG 0x9af8 DEFINED (__AltInterrupt77)?<code 336> (__AltInterrupt77):DEFINED (__Interrupt77)?<code 336> (__Interrupt77):<code 336> (__DefaultInterrupt)
                  0x0001b0          0x4 LONG 0x9af8 DEFINED (__AltInterrupt78)?<code 336> (__AltInterrupt78):DEFINED (__Interrupt78)?<code 336> (__Interrupt78):<code 336> (__DefaultInterrupt)
                  0x0001b2          0x4 LONG 0x9af8 DEFINED (__AltInterrupt79)?<code 336> (__AltInterrupt79):DEFINED (__Interrupt79)?<code 336> (__Interrupt79):<code 336> (__DefaultInterrupt)
                  0x0001b4          0x4 LONG 0x9af8 DEFINED (__AltInterrupt80)?<code 336> (__AltInterrupt80):DEFINED (__Interrupt80)?<code 336> (__Interrupt80):<code 336> (__DefaultInterrupt)
                  0x0001b6          0x4 LONG 0x9af8 DEFINED (__AltInterrupt81)?<code 336> (__AltInterrupt81):DEFINED (__Interrupt81)?<code 336> (__Interrupt81):<code 336> (__DefaultInterrupt)
                  0x0001b8          0x4 LONG 0x9af8 DEFINED (__AltInterrupt82)?<code 336> (__AltInterrupt82):DEFINED (__Interrupt82)?<code 336> (__Interrupt82):<code 336> (__DefaultInterrupt)
                  0x0001ba          0x4 LONG 0x9af8 DEFINED (__AltInterrupt83)?<code 336> (__AltInterrupt83):DEFINED (__Interrupt83)?<code 336> (__Interrupt83):<code 336> (__DefaultInterrupt)
                  0x0001bc          0x4 LONG 0x9af8 DEFINED (__AltInterrupt84)?<code 336> (__AltInterrupt84):DEFINED (__Interrupt84)?<code 336> (__Interrupt84):<code 336> (__DefaultInterrupt)
                  0x0001be          0x4 LONG 0x9af8 DEFINED (__AltInterrupt85)?<code 336> (__AltInterrupt85):DEFINED (__Interrupt85)?<code 336> (__Interrupt85):<code 336> (__DefaultInterrupt)
                  0x0001c0          0x4 LONG 0x9af8 DEFINED (__AltInterrupt86)?<code 336> (__AltInterrupt86):DEFINED (__Interrupt86)?<code 336> (__Interrupt86):<code 336> (__DefaultInterrupt)
                  0x0001c2          0x4 LONG 0x9af8 DEFINED (__AltInterrupt87)?<code 336> (__AltInterrupt87):DEFINED (__Interrupt87)?<code 336> (__Interrupt87):<code 336> (__DefaultInterrupt)
                  0x0001c4          0x4 LONG 0x9af8 DEFINED (__AltInterrupt88)?<code 336> (__AltInterrupt88):DEFINED (__Interrupt88)?<code 336> (__Interrupt88):<code 336> (__DefaultInterrupt)
                  0x0001c6          0x4 LONG 0x9af8 DEFINED (__AltInterrupt89)?<code 336> (__AltInterrupt89):DEFINED (__Interrupt89)?<code 336> (__Interrupt89):<code 336> (__DefaultInterrupt)
                  0x0001c8          0x4 LONG 0x9af8 DEFINED (__AltInterrupt90)?<code 336> (__AltInterrupt90):DEFINED (__Interrupt90)?<code 336> (__Interrupt90):<code 336> (__DefaultInterrupt)
                  0x0001ca          0x4 LONG 0x9af8 DEFINED (__AltInterrupt91)?<code 336> (__AltInterrupt91):DEFINED (__Interrupt91)?<code 336> (__Interrupt91):<code 336> (__DefaultInterrupt)
                  0x0001cc          0x4 LONG 0x9af8 DEFINED (__AltInterrupt92)?<code 336> (__AltInterrupt92):DEFINED (__Interrupt92)?<code 336> (__Interrupt92):<code 336> (__DefaultInterrupt)
                  0x0001ce          0x4 LONG 0x9af8 DEFINED (__AltInterrupt93)?<code 336> (__AltInterrupt93):DEFINED (__Interrupt93)?<code 336> (__Interrupt93):<code 336> (__DefaultInterrupt)
                  0x0001d0          0x4 LONG 0x9af8 DEFINED (__AltInterrupt94)?<code 336> (__AltInterrupt94):DEFINED (__Interrupt94)?<code 336> (__Interrupt94):<code 336> (__DefaultInterrupt)
                  0x0001d2          0x4 LONG 0x9af8 DEFINED (__AltInterrupt95)?<code 336> (__AltInterrupt95):DEFINED (__Interrupt95)?<code 336> (__Interrupt95):<code 336> (__DefaultInterrupt)
                  0x0001d4          0x4 LONG 0x9af8 DEFINED (__AltInterrupt96)?<code 336> (__AltInterrupt96):DEFINED (__Interrupt96)?<code 336> (__Interrupt96):<code 336> (__DefaultInterrupt)
                  0x0001d6          0x4 LONG 0x9af8 DEFINED (__AltInterrupt97)?<code 336> (__AltInterrupt97):DEFINED (__Interrupt97)?<code 336> (__Interrupt97):<code 336> (__DefaultInterrupt)
                  0x0001d8          0x4 LONG 0x9af8 DEFINED (__AltInterrupt98)?<code 336> (__AltInterrupt98):DEFINED (__Interrupt98)?<code 336> (__Interrupt98):<code 336> (__DefaultInterrupt)
                  0x0001da          0x4 LONG 0x9af8 DEFINED (__AltInterrupt99)?<code 336> (__AltInterrupt99):DEFINED (__Interrupt99)?<code 336> (__Interrupt99):<code 336> (__DefaultInterrupt)
                  0x0001dc          0x4 LONG 0x9af8 DEFINED (__AltInterrupt100)?<code 336> (__AltInterrupt100):DEFINED (__Interrupt100)?<code 336> (__Interrupt100):<code 336> (__DefaultInterrupt)
                  0x0001de          0x4 LONG 0x9af8 DEFINED (__AltInterrupt101)?<code 336> (__AltInterrupt101):DEFINED (__Interrupt101)?<code 336> (__Interrupt101):<code 336> (__DefaultInterrupt)
                  0x0001e0          0x4 LONG 0x9af8 DEFINED (__AltInterrupt102)?<code 336> (__AltInterrupt102):DEFINED (__Interrupt102)?<code 336> (__Interrupt102):<code 336> (__DefaultInterrupt)
                  0x0001e2          0x4 LONG 0x9af8 DEFINED (__AltInterrupt103)?<code 336> (__AltInterrupt103):DEFINED (__Interrupt103)?<code 336> (__Interrupt103):<code 336> (__DefaultInterrupt)
                  0x0001e4          0x4 LONG 0x9af8 DEFINED (__AltInterrupt104)?<code 336> (__AltInterrupt104):DEFINED (__Interrupt104)?<code 336> (__Interrupt104):<code 336> (__DefaultInterrupt)
                  0x0001e6          0x4 LONG 0x9af8 DEFINED (__AltInterrupt105)?<code 336> (__AltInterrupt105):DEFINED (__Interrupt105)?<code 336> (__Interrupt105):<code 336> (__DefaultInterrupt)
                  0x0001e8          0x4 LONG 0x9af8 DEFINED (__AltInterrupt106)?<code 336> (__AltInterrupt106):DEFINED (__Interrupt106)?<code 336> (__Interrupt106):<code 336> (__DefaultInterrupt)
                  0x0001ea          0x4 LONG 0x9af8 DEFINED (__AltInterrupt107)?<code 336> (__AltInterrupt107):DEFINED (__Interrupt107)?<code 336> (__Interrupt107):<code 336> (__DefaultInterrupt)
                  0x0001ec          0x4 LONG 0x9af8 DEFINED (__AltInterrupt108)?<code 336> (__AltInterrupt108):DEFINED (__Interrupt108)?<code 336> (__Interrupt108):<code 336> (__DefaultInterrupt)
                  0x0001ee          0x4 LONG 0x9af8 DEFINED (__AltInterrupt109)?<code 336> (__AltInterrupt109):DEFINED (__Interrupt109)?<code 336> (__Interrupt109):<code 336> (__DefaultInterrupt)
                  0x0001f0          0x4 LONG 0x9af8 DEFINED (__AltInterrupt110)?<code 336> (__AltInterrupt110):DEFINED (__Interrupt110)?<code 336> (__Interrupt110):<code 336> (__DefaultInterrupt)
                  0x0001f2          0x4 LONG 0x9af8 DEFINED (__AltInterrupt111)?<code 336> (__AltInterrupt111):DEFINED (__Interrupt111)?<code 336> (__Interrupt111):<code 336> (__DefaultInterrupt)
                  0x0001f4          0x4 LONG 0x9af8 DEFINED (__AltInterrupt112)?<code 336> (__AltInterrupt112):DEFINED (__Interrupt112)?<code 336> (__Interrupt112):<code 336> (__DefaultInterrupt)
                  0x0001f6          0x4 LONG 0x9af8 DEFINED (__AltInterrupt113)?<code 336> (__AltInterrupt113):DEFINED (__Interrupt113)?<code 336> (__Interrupt113):<code 336> (__DefaultInterrupt)
                  0x0001f8          0x4 LONG 0x9af8 DEFINED (__AltInterrupt114)?<code 336> (__AltInterrupt114):DEFINED (__Interrupt114)?<code 336> (__Interrupt114):<code 336> (__DefaultInterrupt)
                  0x0001fa          0x4 LONG 0x9af8 DEFINED (__AltInterrupt115)?<code 336> (__AltInterrupt115):DEFINED (__Interrupt115)?<code 336> (__Interrupt115):<code 336> (__DefaultInterrupt)
                  0x0001fc          0x4 LONG 0x9af8 DEFINED (__AltInterrupt116)?<code 336> (__AltInterrupt116):DEFINED (__Interrupt116)?<code 336> (__Interrupt116):<code 336> (__DefaultInterrupt)
                  0x0001fe          0x4 LONG 0x9af8 DEFINED (__AltInterrupt117)?<code 336> (__AltInterrupt117):DEFINED (__Interrupt117)?<code 336> (__Interrupt117):<code 336> (__DefaultInterrupt)
                    0x0000                  WREG0 = 0x0
                    0x0000                  _WREG0 = 0x0
                    0x0002                  WREG1 = 0x2
                    0x0002                  _WREG1 = 0x2
                    0x0004                  WREG2 = 0x4
                    0x0004                  _WREG2 = 0x4
                    0x0006                  WREG3 = 0x6
                    0x0006                  _WREG3 = 0x6
                    0x0008                  WREG4 = 0x8
                    0x0008                  _WREG4 = 0x8
                    0x000a                  WREG5 = 0xa
                    0x000a                  _WREG5 = 0xa
                    0x000c                  WREG6 = 0xc
                    0x000c                  _WREG6 = 0xc
                    0x000e                  WREG7 = 0xe
                    0x000e                  _WREG7 = 0xe
                    0x0010                  WREG8 = 0x10
                    0x0010                  _WREG8 = 0x10
                    0x0012                  WREG9 = 0x12
                    0x0012                  _WREG9 = 0x12
                    0x0014                  WREG10 = 0x14
                    0x0014                  _WREG10 = 0x14
                    0x0016                  WREG11 = 0x16
                    0x0016                  _WREG11 = 0x16
                    0x0018                  WREG12 = 0x18
                    0x0018                  _WREG12 = 0x18
                    0x001a                  WREG13 = 0x1a
                    0x001a                  _WREG13 = 0x1a
                    0x001c                  WREG14 = 0x1c
                    0x001c                  _WREG14 = 0x1c
                    0x001e                  WREG15 = 0x1e
                    0x001e                  _WREG15 = 0x1e
                    0x0020                  SPLIM = 0x20
                    0x0020                  _SPLIM = 0x20
                    0x002e                  PCL = 0x2e
                    0x002e                  _PCL = 0x2e
                    0x0030                  PCH = 0x30
                    0x0030                  _PCH = 0x30
                    0x0032                  TBLPAG = 0x32
                    0x0032                  _TBLPAG = 0x32
                    0x0034                  PSVPAG = 0x34
                    0x0034                  _PSVPAG = 0x34
                    0x0036                  RCOUNT = 0x36
                    0x0036                  _RCOUNT = 0x36
                    0x0042                  SR = 0x42
                    0x0042                  _SR = 0x42
                    0x0042                  _SRbits = 0x42
                    0x0044                  CORCON = 0x44
                    0x0044                  _CORCON = 0x44
                    0x0044                  _CORCONbits = 0x44
                    0x0052                  DISICNT = 0x52
                    0x0052                  _DISICNT = 0x52
                    0x0060                  CNEN1 = 0x60
                    0x0060                  _CNEN1 = 0x60
                    0x0060                  _CNEN1bits = 0x60
                    0x0062                  CNEN2 = 0x62
                    0x0062                  _CNEN2 = 0x62
                    0x0062                  _CNEN2bits = 0x62
                    0x0068                  CNPU1 = 0x68
                    0x0068                  _CNPU1 = 0x68
                    0x0068                  _CNPU1bits = 0x68
                    0x006a                  CNPU2 = 0x6a
                    0x006a                  _CNPU2 = 0x6a
                    0x006a                  _CNPU2bits = 0x6a
                    0x0080                  INTCON1 = 0x80
                    0x0080                  _INTCON1 = 0x80
                    0x0080                  _INTCON1bits = 0x80
                    0x0082                  INTCON2 = 0x82
                    0x0082                  _INTCON2 = 0x82
                    0x0082                  _INTCON2bits = 0x82
                    0x0084                  IFS0 = 0x84
                    0x0084                  _IFS0 = 0x84
                    0x0084                  _IFS0bits = 0x84
                    0x0086                  IFS1 = 0x86
                    0x0086                  _IFS1 = 0x86
                    0x0086                  _IFS1bits = 0x86
                    0x0088                  IFS2 = 0x88
                    0x0088                  _IFS2 = 0x88
                    0x0088                  _IFS2bits = 0x88
                    0x008a                  IFS3 = 0x8a
                    0x008a                  _IFS3 = 0x8a
                    0x008a                  _IFS3bits = 0x8a
                    0x008c                  IFS4 = 0x8c
                    0x008c                  _IFS4 = 0x8c
                    0x008c                  _IFS4bits = 0x8c
                    0x0094                  IEC0 = 0x94
                    0x0094                  _IEC0 = 0x94
                    0x0094                  _IEC0bits = 0x94
                    0x0096                  IEC1 = 0x96
                    0x0096                  _IEC1 = 0x96
                    0x0096                  _IEC1bits = 0x96
                    0x0098                  IEC2 = 0x98
                    0x0098                  _IEC2 = 0x98
                    0x0098                  _IEC2bits = 0x98
                    0x009a                  IEC3 = 0x9a
                    0x009a                  _IEC3 = 0x9a
                    0x009a                  _IEC3bits = 0x9a
                    0x009c                  IEC4 = 0x9c
                    0x009c                  _IEC4 = 0x9c
                    0x009c                  _IEC4bits = 0x9c
                    0x00a4                  IPC0 = 0xa4
                    0x00a4                  _IPC0 = 0xa4
                    0x00a4                  _IPC0bits = 0xa4
                    0x00a6                  IPC1 = 0xa6
                    0x00a6                  _IPC1 = 0xa6
                    0x00a6                  _IPC1bits = 0xa6
                    0x00a8                  IPC2 = 0xa8
                    0x00a8                  _IPC2 = 0xa8
                    0x00a8                  _IPC2bits = 0xa8
                    0x00aa                  IPC3 = 0xaa
                    0x00aa                  _IPC3 = 0xaa
                    0x00aa                  _IPC3bits = 0xaa
                    0x00ac                  IPC4 = 0xac
                    0x00ac                  _IPC4 = 0xac
                    0x00ac                  _IPC4bits = 0xac
                    0x00ae                  IPC5 = 0xae
                    0x00ae                  _IPC5 = 0xae
                    0x00ae                  _IPC5bits = 0xae
                    0x00b0                  IPC6 = 0xb0
                    0x00b0                  _IPC6 = 0xb0
                    0x00b0                  _IPC6bits = 0xb0
                    0x00b2                  IPC7 = 0xb2
                    0x00b2                  _IPC7 = 0xb2
                    0x00b2                  _IPC7bits = 0xb2
                    0x00b4                  IPC8 = 0xb4
                    0x00b4                  _IPC8 = 0xb4
                    0x00b4                  _IPC8bits = 0xb4
                    0x00b6                  IPC9 = 0xb6
                    0x00b6                  _IPC9 = 0xb6
                    0x00b6                  _IPC9bits = 0xb6
                    0x00b8                  IPC10 = 0xb8
                    0x00b8                  _IPC10 = 0xb8
                    0x00b8                  _IPC10bits = 0xb8
                    0x00ba                  IPC11 = 0xba
                    0x00ba                  _IPC11 = 0xba
                    0x00ba                  _IPC11bits = 0xba
                    0x00bc                  IPC12 = 0xbc
                    0x00bc                  _IPC12 = 0xbc
                    0x00bc                  _IPC12bits = 0xbc
                    0x00be                  IPC13 = 0xbe
                    0x00be                  _IPC13 = 0xbe
                    0x00be                  _IPC13bits = 0xbe
                    0x00c2                  IPC15 = 0xc2
                    0x00c2                  _IPC15 = 0xc2
                    0x00c2                  _IPC15bits = 0xc2
                    0x00c4                  IPC16 = 0xc4
                    0x00c4                  _IPC16 = 0xc4
                    0x00c4                  _IPC16bits = 0xc4
                    0x0100                  TMR1 = 0x100
                    0x0100                  _TMR1 = 0x100
                    0x0102                  PR1 = 0x102
                    0x0102                  _PR1 = 0x102
                    0x0104                  T1CON = 0x104
                    0x0104                  _T1CON = 0x104
                    0x0104                  _T1CONbits = 0x104
                    0x0106                  TMR2 = 0x106
                    0x0106                  _TMR2 = 0x106
                    0x0108                  TMR3HLD = 0x108
                    0x0108                  _TMR3HLD = 0x108
                    0x010a                  TMR3 = 0x10a
                    0x010a                  _TMR3 = 0x10a
                    0x010c                  PR2 = 0x10c
                    0x010c                  _PR2 = 0x10c
                    0x010e                  PR3 = 0x10e
                    0x010e                  _PR3 = 0x10e
                    0x0110                  T2CON = 0x110
                    0x0110                  _T2CON = 0x110
                    0x0110                  _T2CONbits = 0x110
                    0x0112                  T3CON = 0x112
                    0x0112                  _T3CON = 0x112
                    0x0112                  _T3CONbits = 0x112
                    0x0114                  TMR4 = 0x114
                    0x0114                  _TMR4 = 0x114
                    0x0116                  TMR5HLD = 0x116
                    0x0116                  _TMR5HLD = 0x116
                    0x0118                  TMR5 = 0x118
                    0x0118                  _TMR5 = 0x118
                    0x011a                  PR4 = 0x11a
                    0x011a                  _PR4 = 0x11a
                    0x011c                  PR5 = 0x11c
                    0x011c                  _PR5 = 0x11c
                    0x011e                  T4CON = 0x11e
                    0x011e                  _T4CON = 0x11e
                    0x011e                  _T4CONbits = 0x11e
                    0x0120                  T5CON = 0x120
                    0x0120                  _T5CON = 0x120
                    0x0120                  _T5CONbits = 0x120
                    0x0140                  IC1BUF = 0x140
                    0x0140                  _IC1BUF = 0x140
                    0x0142                  IC1CON = 0x142
                    0x0142                  _IC1CON = 0x142
                    0x0142                  _IC1CONbits = 0x142
                    0x0144                  IC2BUF = 0x144
                    0x0144                  _IC2BUF = 0x144
                    0x0146                  IC2CON = 0x146
                    0x0146                  _IC2CON = 0x146
                    0x0146                  _IC2CONbits = 0x146
                    0x0148                  IC3BUF = 0x148
                    0x0148                  _IC3BUF = 0x148
                    0x014a                  IC3CON = 0x14a
                    0x014a                  _IC3CON = 0x14a
                    0x014a                  _IC3CONbits = 0x14a
                    0x014c                  IC4BUF = 0x14c
                    0x014c                  _IC4BUF = 0x14c
                    0x014e                  IC4CON = 0x14e
                    0x014e                  _IC4CON = 0x14e
                    0x014e                  _IC4CONbits = 0x14e
                    0x0150                  IC5BUF = 0x150
                    0x0150                  _IC5BUF = 0x150
                    0x0152                  IC5CON = 0x152
                    0x0152                  _IC5CON = 0x152
                    0x0152                  _IC5CONbits = 0x152
                    0x0180                  OC1RS = 0x180
                    0x0180                  _OC1RS = 0x180
                    0x0182                  OC1R = 0x182
                    0x0182                  _OC1R = 0x182
                    0x0184                  OC1CON = 0x184
                    0x0184                  _OC1CON = 0x184
                    0x0184                  _OC1CONbits = 0x184
                    0x0186                  OC2RS = 0x186
                    0x0186                  _OC2RS = 0x186
                    0x0188                  OC2R = 0x188
                    0x0188                  _OC2R = 0x188
                    0x018a                  OC2CON = 0x18a
                    0x018a                  _OC2CON = 0x18a
                    0x018a                  _OC2CONbits = 0x18a
                    0x018c                  OC3RS = 0x18c
                    0x018c                  _OC3RS = 0x18c
                    0x018e                  OC3R = 0x18e
                    0x018e                  _OC3R = 0x18e
                    0x0190                  OC3CON = 0x190
                    0x0190                  _OC3CON = 0x190
                    0x0190                  _OC3CONbits = 0x190
                    0x0192                  OC4RS = 0x192
                    0x0192                  _OC4RS = 0x192
                    0x0194                  OC4R = 0x194
                    0x0194                  _OC4R = 0x194
                    0x0196                  OC4CON = 0x196
                    0x0196                  _OC4CON = 0x196
                    0x0196                  _OC4CONbits = 0x196
                    0x0198                  OC5RS = 0x198
                    0x0198                  _OC5RS = 0x198
                    0x019a                  OC5R = 0x19a
                    0x019a                  _OC5R = 0x19a
                    0x019c                  OC5CON = 0x19c
                    0x019c                  _OC5CON = 0x19c
                    0x019c                  _OC5CONbits = 0x19c
                    0x0200                  I2C1RCV = 0x200
                    0x0200                  _I2C1RCV = 0x200
                    0x0202                  I2C1TRN = 0x202
                    0x0202                  _I2C1TRN = 0x202
                    0x0204                  I2C1BRG = 0x204
                    0x0204                  _I2C1BRG = 0x204
                    0x0206                  I2C1CON = 0x206
                    0x0206                  _I2C1CON = 0x206
                    0x0206                  _I2C1CONbits = 0x206
                    0x0208                  I2C1STAT = 0x208
                    0x0208                  _I2C1STAT = 0x208
                    0x0208                  _I2C1STATbits = 0x208
                    0x020a                  I2C1ADD = 0x20a
                    0x020a                  _I2C1ADD = 0x20a
                    0x020c                  I2C1MSK = 0x20c
                    0x020c                  _I2C1MSK = 0x20c
                    0x0210                  I2C2RCV = 0x210
                    0x0210                  _I2C2RCV = 0x210
                    0x0212                  I2C2TRN = 0x212
                    0x0212                  _I2C2TRN = 0x212
                    0x0214                  I2C2BRG = 0x214
                    0x0214                  _I2C2BRG = 0x214
                    0x0216                  I2C2CON = 0x216
                    0x0216                  _I2C2CON = 0x216
                    0x0216                  _I2C2CONbits = 0x216
                    0x0218                  I2C2STAT = 0x218
                    0x0218                  _I2C2STAT = 0x218
                    0x0218                  _I2C2STATbits = 0x218
                    0x021a                  I2C2ADD = 0x21a
                    0x021a                  _I2C2ADD = 0x21a
                    0x021c                  I2C2MSK = 0x21c
                    0x021c                  _I2C2MSK = 0x21c
                    0x0220                  U1MODE = 0x220
                    0x0220                  _U1MODE = 0x220
                    0x0220                  _U1MODEbits = 0x220
                    0x0222                  U1STA = 0x222
                    0x0222                  _U1STA = 0x222
                    0x0222                  _U1STAbits = 0x222
                    0x0224                  U1TXREG = 0x224
                    0x0224                  _U1TXREG = 0x224
                    0x0226                  U1RXREG = 0x226
                    0x0226                  _U1RXREG = 0x226
                    0x0228                  U1BRG = 0x228
                    0x0228                  _U1BRG = 0x228
                    0x0230                  U2MODE = 0x230
                    0x0230                  _U2MODE = 0x230
                    0x0230                  _U2MODEbits = 0x230
                    0x0232                  U2STA = 0x232
                    0x0232                  _U2STA = 0x232
                    0x0232                  _U2STAbits = 0x232
                    0x0234                  U2TXREG = 0x234
                    0x0234                  _U2TXREG = 0x234
                    0x0236                  U2RXREG = 0x236
                    0x0236                  _U2RXREG = 0x236
                    0x0238                  U2BRG = 0x238
                    0x0238                  _U2BRG = 0x238
                    0x0240                  SPI1STAT = 0x240
                    0x0240                  _SPI1STAT = 0x240
                    0x0240                  _SPI1STATbits = 0x240
                    0x0242                  SPI1CON1 = 0x242
                    0x0242                  _SPI1CON1 = 0x242
                    0x0242                  _SPI1CON1bits = 0x242
                    0x0244                  SPI1CON2 = 0x244
                    0x0244                  _SPI1CON2 = 0x244
                    0x0244                  _SPI1CON2bits = 0x244
                    0x0248                  SPI1BUF = 0x248
                    0x0248                  _SPI1BUF = 0x248
                    0x0260                  SPI2STAT = 0x260
                    0x0260                  _SPI2STAT = 0x260
                    0x0260                  _SPI2STATbits = 0x260
                    0x0262                  SPI2CON1 = 0x262
                    0x0262                  _SPI2CON1 = 0x262
                    0x0262                  _SPI2CON1bits = 0x262
                    0x0264                  SPI2CON2 = 0x264
                    0x0264                  _SPI2CON2 = 0x264
                    0x0264                  _SPI2CON2bits = 0x264
                    0x0268                  SPI2BUF = 0x268
                    0x0268                  _SPI2BUF = 0x268
                    0x02c0                  TRISA = 0x2c0
                    0x02c0                  _TRISA = 0x2c0
                    0x02c0                  _TRISAbits = 0x2c0
                    0x02c2                  PORTA = 0x2c2
                    0x02c2                  _PORTA = 0x2c2
                    0x02c2                  _PORTAbits = 0x2c2
                    0x02c4                  LATA = 0x2c4
                    0x02c4                  _LATA = 0x2c4
                    0x02c4                  _LATAbits = 0x2c4
                    0x02c6                  TRISB = 0x2c6
                    0x02c6                  _TRISB = 0x2c6
                    0x02c6                  _TRISBbits = 0x2c6
                    0x02c8                  PORTB = 0x2c8
                    0x02c8                  _PORTB = 0x2c8
                    0x02c8                  _PORTBbits = 0x2c8
                    0x02ca                  LATB = 0x2ca
                    0x02ca                  _LATB = 0x2ca
                    0x02ca                  _LATBbits = 0x2ca
                    0x02cc                  TRISC = 0x2cc
                    0x02cc                  _TRISC = 0x2cc
                    0x02cc                  _TRISCbits = 0x2cc
                    0x02ce                  PORTC = 0x2ce
                    0x02ce                  _PORTC = 0x2ce
                    0x02ce                  _PORTCbits = 0x2ce
                    0x02d0                  LATC = 0x2d0
                    0x02d0                  _LATC = 0x2d0
                    0x02d0                  _LATCbits = 0x2d0
                    0x02d2                  TRISD = 0x2d2
                    0x02d2                  _TRISD = 0x2d2
                    0x02d2                  _TRISDbits = 0x2d2
                    0x02d4                  PORTD = 0x2d4
                    0x02d4                  _PORTD = 0x2d4
                    0x02d4                  _PORTDbits = 0x2d4
                    0x02d6                  LATD = 0x2d6
                    0x02d6                  _LATD = 0x2d6
                    0x02d6                  _LATDbits = 0x2d6
                    0x02d8                  TRISE = 0x2d8
                    0x02d8                  _TRISE = 0x2d8
                    0x02d8                  _TRISEbits = 0x2d8
                    0x02da                  PORTE = 0x2da
                    0x02da                  _PORTE = 0x2da
                    0x02da                  _PORTEbits = 0x2da
                    0x02dc                  LATE = 0x2dc
                    0x02dc                  _LATE = 0x2dc
                    0x02dc                  _LATEbits = 0x2dc
                    0x02de                  TRISF = 0x2de
                    0x02de                  _TRISF = 0x2de
                    0x02de                  _TRISFbits = 0x2de
                    0x02e0                  PORTF = 0x2e0
                    0x02e0                  _PORTF = 0x2e0
                    0x02e0                  _PORTFbits = 0x2e0
                    0x02e2                  LATF = 0x2e2
                    0x02e2                  _LATF = 0x2e2
                    0x02e2                  _LATFbits = 0x2e2
                    0x02e4                  TRISG = 0x2e4
                    0x02e4                  _TRISG = 0x2e4
                    0x02e4                  _TRISGbits = 0x2e4
                    0x02e6                  PORTG = 0x2e6
                    0x02e6                  _PORTG = 0x2e6
                    0x02e6                  _PORTGbits = 0x2e6
                    0x02e8                  LATG = 0x2e8
                    0x02e8                  _LATG = 0x2e8
                    0x02e8                  _LATGbits = 0x2e8
                    0x02fc                  PADCFG1 = 0x2fc
                    0x02fc                  _PADCFG1 = 0x2fc
                    0x02fc                  _PADCFG1bits = 0x2fc
                    0x0300                  ADC1BUF0 = 0x300
                    0x0300                  _ADC1BUF0 = 0x300
                    0x0302                  ADC1BUF1 = 0x302
                    0x0302                  _ADC1BUF1 = 0x302
                    0x0304                  ADC1BUF2 = 0x304
                    0x0304                  _ADC1BUF2 = 0x304
                    0x0306                  ADC1BUF3 = 0x306
                    0x0306                  _ADC1BUF3 = 0x306
                    0x0308                  ADC1BUF4 = 0x308
                    0x0308                  _ADC1BUF4 = 0x308
                    0x030a                  ADC1BUF5 = 0x30a
                    0x030a                  _ADC1BUF5 = 0x30a
                    0x030c                  ADC1BUF6 = 0x30c
                    0x030c                  _ADC1BUF6 = 0x30c
                    0x030e                  ADC1BUF7 = 0x30e
                    0x030e                  _ADC1BUF7 = 0x30e
                    0x0310                  ADC1BUF8 = 0x310
                    0x0310                  _ADC1BUF8 = 0x310
                    0x0312                  ADC1BUF9 = 0x312
                    0x0312                  _ADC1BUF9 = 0x312
                    0x0314                  ADC1BUFA = 0x314
                    0x0314                  _ADC1BUFA = 0x314
                    0x0316                  ADC1BUFB = 0x316
                    0x0316                  _ADC1BUFB = 0x316
                    0x0318                  ADC1BUFC = 0x318
                    0x0318                  _ADC1BUFC = 0x318
                    0x031a                  ADC1BUFD = 0x31a
                    0x031a                  _ADC1BUFD = 0x31a
                    0x031c                  ADC1BUFE = 0x31c
                    0x031c                  _ADC1BUFE = 0x31c
                    0x031e                  ADC1BUFF = 0x31e
                    0x031e                  _ADC1BUFF = 0x31e
                    0x0320                  AD1CON1 = 0x320
                    0x0320                  _AD1CON1 = 0x320
                    0x0320                  _AD1CON1bits = 0x320
                    0x0322                  AD1CON2 = 0x322
                    0x0322                  _AD1CON2 = 0x322
                    0x0322                  _AD1CON2bits = 0x322
                    0x0324                  AD1CON3 = 0x324
                    0x0324                  _AD1CON3 = 0x324
                    0x0324                  _AD1CON3bits = 0x324
                    0x0328                  AD1CHS = 0x328
                    0x0328                  _AD1CHS = 0x328
                    0x0328                  _AD1CHSbits = 0x328
                    0x032c                  AD1PCFG = 0x32c
                    0x032c                  _AD1PCFG = 0x32c
                    0x032c                  _AD1PCFGbits = 0x32c
                    0x0330                  AD1CSSL = 0x330
                    0x0330                  _AD1CSSL = 0x330
                    0x0330                  _AD1CSSLbits = 0x330
                    0x0600                  PMCON = 0x600
                    0x0600                  _PMCON = 0x600
                    0x0600                  _PMCONbits = 0x600
                    0x0602                  PMMODE = 0x602
                    0x0602                  _PMMODE = 0x602
                    0x0602                  _PMMODEbits = 0x602
                    0x0604                  PMADDR = 0x604
                    0x0604                  _PMADDR = 0x604
                    0x0604                  _PMADDRbits = 0x604
                    0x0604                  PMDOUT1 = 0x604
                    0x0604                  _PMDOUT1 = 0x604
                    0x0606                  PMDOUT2 = 0x606
                    0x0606                  _PMDOUT2 = 0x606
                    0x0608                  PMDIN1 = 0x608
                    0x0608                  _PMDIN1 = 0x608
                    0x060a                  PMDIN2 = 0x60a
                    0x060a                  _PMDIN2 = 0x60a
                    0x060c                  PMAEN = 0x60c
                    0x060c                  _PMAEN = 0x60c
                    0x060c                  _PMAENbits = 0x60c
                    0x060e                  PMSTAT = 0x60e
                    0x060e                  _PMSTAT = 0x60e
                    0x060e                  _PMSTATbits = 0x60e
                    0x0620                  ALRMVAL = 0x620
                    0x0620                  _ALRMVAL = 0x620
                    0x0622                  ALCFGRPT = 0x622
                    0x0622                  _ALCFGRPT = 0x622
                    0x0622                  _ALCFGRPTbits = 0x622
                    0x0624                  RTCVAL = 0x624
                    0x0624                  _RTCVAL = 0x624
                    0x0626                  RCFGCAL = 0x626
                    0x0626                  _RCFGCAL = 0x626
                    0x0626                  _RCFGCALbits = 0x626
                    0x0630                  CMCON = 0x630
                    0x0630                  _CMCON = 0x630
                    0x0630                  _CMCONbits = 0x630
                    0x0632                  CVRCON = 0x632
                    0x0632                  _CVRCON = 0x632
                    0x0632                  _CVRCONbits = 0x632
                    0x0640                  CRCCON = 0x640
                    0x0640                  _CRCCON = 0x640
                    0x0640                  _CRCCONbits = 0x640
                    0x0642                  CRCXOR = 0x642
                    0x0642                  _CRCXOR = 0x642
                    0x0644                  CRCDAT = 0x644
                    0x0644                  _CRCDAT = 0x644
                    0x0646                  CRCWDAT = 0x646
                    0x0646                  _CRCWDAT = 0x646
                    0x06c0                  ODCA = 0x6c0
                    0x06c0                  _ODCA = 0x6c0
                    0x06c0                  _ODCAbits = 0x6c0
                    0x06c6                  ODCB = 0x6c6
                    0x06c6                  _ODCB = 0x6c6
                    0x06c6                  _ODCBbits = 0x6c6
                    0x06cc                  ODCC = 0x6cc
                    0x06cc                  _ODCC = 0x6cc
                    0x06cc                  _ODCCbits = 0x6cc
                    0x06d2                  ODCD = 0x6d2
                    0x06d2                  _ODCD = 0x6d2
                    0x06d2                  _ODCDbits = 0x6d2
                    0x06d8                  ODCE = 0x6d8
                    0x06d8                  _ODCE = 0x6d8
                    0x06d8                  _ODCEbits = 0x6d8
                    0x06de                  ODCF = 0x6de
                    0x06de                  _ODCF = 0x6de
                    0x06de                  _ODCFbits = 0x6de
                    0x06e4                  ODCG = 0x6e4
                    0x06e4                  _ODCG = 0x6e4
                    0x06e4                  _ODCGbits = 0x6e4
                    0x0740                  RCON = 0x740
                    0x0740                  _RCON = 0x740
                    0x0740                  _RCONbits = 0x740
                    0x0742                  OSCCON = 0x742
                    0x0742                  _OSCCON = 0x742
                    0x0742                  _OSCCONbits = 0x742
                    0x0744                  CLKDIV = 0x744
                    0x0744                  _CLKDIV = 0x744
                    0x0744                  _CLKDIVbits = 0x744
                    0x0748                  OSCTUN = 0x748
                    0x0748                  _OSCTUN = 0x748
                    0x0748                  _OSCTUNbits = 0x748
                    0x0760                  NVMCON = 0x760
                    0x0760                  _NVMCON = 0x760
                    0x0760                  _NVMCONbits = 0x760
                    0x0766                  NVMKEY = 0x766
                    0x0766                  _NVMKEY = 0x766
                    0x0770                  PMD1 = 0x770
                    0x0770                  _PMD1 = 0x770
                    0x0770                  _PMD1bits = 0x770
                    0x0772                  PMD2 = 0x772
                    0x0772                  _PMD2 = 0x772
                    0x0772                  _PMD2bits = 0x772
                    0x0774                  PMD3 = 0x774
                    0x0774                  _PMD3 = 0x774
                    0x0774                  _PMD3bits = 0x774
                    0x0140                  IC1 = 0x140
                    0x0140                  _IC1 = 0x140
                    0x0144                  IC2 = 0x144
                    0x0144                  _IC2 = 0x144
                    0x0148                  IC3 = 0x148
                    0x0148                  _IC3 = 0x148
                    0x014c                  IC4 = 0x14c
                    0x014c                  _IC4 = 0x14c
                    0x0150                  IC5 = 0x150
                    0x0150                  _IC5 = 0x150
                    0x0180                  OC1 = 0x180
                    0x0180                  _OC1 = 0x180
                    0x0186                  OC2 = 0x186
                    0x0186                  _OC2 = 0x186
                    0x018c                  OC3 = 0x18c
                    0x018c                  _OC3 = 0x18c
                    0x0192                  OC4 = 0x192
                    0x0192                  _OC4 = 0x192
                    0x0198                  OC5 = 0x198
                    0x0198                  _OC5 = 0x198
                    0x0240                  SPI1 = 0x240
                    0x0240                  _SPI1 = 0x240
                    0x0260                  SPI2 = 0x260
                    0x0260                  _SPI2 = 0x260
                    0x0220                  UART1 = 0x220
                    0x0220                  _UART1 = 0x220
                    0x0230                  UART2 = 0x230
                    0x0230                  _UART2 = 0x230
START GROUP
LOAD i:/usb/microchip/mplab c30/bin/../lib\libpic30-coff.a
LOAD i:/usb/microchip/mplab c30/bin/../lib\libm-coff.a
LOAD i:/usb/microchip/mplab c30/bin/../lib\libc-coff.a
END GROUP
OUTPUT(H:\PIC\TestEx16\RPanel\Output\RPanel.cof coff-pic30)
LOAD data_init
LOAD default_isr

.const            0x008610        0x52c
 .const           0x008610         0xf2 H:\PIC\TestEx16\RPanel\Objects\TouchScreen.o
 .const           0x008702         0x64 H:\PIC\TestEx16\RPanel\Objects\RPanel_main.o
 .const           0x008766         0xbe H:\PIC\TestEx16\RPanel\Objects\makePage.o
 .const           0x008824        0x2cc H:\PIC\TestEx16\RPanel\Objects\NumBFont.o
                  0x008824                  L2695
                  0x008aec                  Arial_BigNumbers
 .const           0x008af0          0x4 H:\PIC\TestEx16\RPanel\GOL.a(GOLFontDefault.o)
                  0x008af0                  GOLFontDefault
 .const           0x008af4         0x48 H:\PIC\TestEx16\RPanel\GOL.a(Meter.o)
                  0x008af4                  _sineTable

.nbss               0x0800         0x40
 .nbss              0x0800         0x40 H:\PIC\TestEx16\RPanel\GOL.a(Primitive.o)
                    0x0830                  _lineType
                    0x0832                  _lineThickness
                    0x0834                  _cursorX
                    0x0836                  _cursorY
                    0x0838                  _font
                    0x083a                  _fontFirstChar
                    0x083c                  _fontLastChar
                    0x083e                  _fontHeight

.nbss               0x0840         0x36
 .nbss              0x0840         0x36 H:\PIC\TestEx16\RPanel\Objects\makePage.o
                    0x0840                  nFreq
                    0x0842                  szFreq
                    0x0852                  szSetpoint
                    0x0862                  szAGC
                    0x086a                  nAGC
                    0x086c                  szFilt
                    0x0874                  nFiltState

.ndata              0x0876         0x18
 .ndata             0x0876         0x18 H:\PIC\TestEx16\RPanel\Objects\TouchScreen.o
                    0x0876                  state
                    0x0878                  calibration
                    0x0879                  debounce_counter
                    0x087a                  adcPot
                    0x087c                  adcY
                    0x087e                  adcX
                    0x0880                  _calYMax
                    0x0882                  _calYMin
                    0x0884                  _calXMax
                    0x0886                  _calXMin

.nbss               0x088e         0x18
 .nbss              0x088e         0x18 H:\PIC\TestEx16\RPanel\Objects\RPanel_main.o
                    0x088e                  pSMeter
                    0x0890                  nSUpDown
                    0x0892                  nSLastValue
                    0x0894                  nSOK
                    0x0896                  nSValue
                    0x0898                  nScheme
                    0x089a                  nSetpoint
                    0x089c                  nNewPage
                    0x089e                  wnd2Scheme
                    0x08a0                  wndScheme
                    0x08a2                  alt4Scheme
                    0x08a4                  alt3Scheme

.nbss               0x08a6         0x18
 .nbss              0x08a6         0x18 H:\PIC\TestEx16\RPanel\GOL.a(GOL.o)
                    0x08ac                  _rpnlX1
                    0x08ae                  _rpnlY1
                    0x08b0                  _rpnlX2
                    0x08b2                  _rpnlY2
                    0x08b4                  _rpnlR
                    0x08b6                  _rpnlFaceColor
                    0x08b8                  _rpnlEmbossLtColor
                    0x08ba                  _rpnlEmbossDkColor
                    0x08bc                  _rpnlEmbossSize

.nbss               0x08be         0x16
 .nbss              0x08be         0x16 H:\PIC\TestEx16\RPanel\GOL.a(Meter.o)

.nbss               0x08d4         0x14
 .nbss              0x08d4         0x14 H:\PIC\TestEx16\RPanel\GOL.a(Slider.o)

.nbss               0x08e8          0xc
 .nbss              0x08e8          0xc H:\PIC\TestEx16\RPanel\GOL.a(S6d0129L.o)
                    0x08e8                  _color
                    0x08ea                  _clipRgn
                    0x08ec                  _clipLeft
                    0x08ee                  _clipTop
                    0x08f0                  _clipRight
                    0x08f2                  _clipBottom

.nbss               0x08f4          0xc
 .nbss              0x08f4          0xc H:\PIC\TestEx16\RPanel\GOL.a(RadioButton.o)

.nbss               0x0900          0xa
 .nbss              0x0900          0xa H:\PIC\TestEx16\RPanel\GOL.a(Picture.o)

.ndata              0x090a          0x8
 .ndata             0x090a          0x8 H:\PIC\TestEx16\RPanel\GOL.a(GOL.o)
                    0x090a                  _pGolObjects
                    0x090c                  _pDefaultGolScheme
                    0x090e                  _pObjectFocused
                    0x0910                  _pRpnlBitmap

.nbss               0x0912          0x8
 .nbss              0x0912          0x8 H:\PIC\TestEx16\RPanel\GOL.a(Button.o)

.nbss               0x091a          0x8
 .nbss              0x091a          0x8 H:\PIC\TestEx16\RPanel\GOL.a(StaticText.o)

.nbss               0x0922          0x8
 .nbss              0x0922          0x8 H:\PIC\TestEx16\RPanel\GOL.a(GroupBox.o)

.ndata              0x092a          0x6
 .ndata             0x092a          0x6 H:\PIC\TestEx16\RPanel\Objects\ProgressBar.o

.nbss               0x0930          0x6
 .nbss              0x0930          0x6 H:\PIC\TestEx16\RPanel\Objects\ProgressBar.o

.nbss               0x0936          0x6
 .nbss              0x0936          0x6 H:\PIC\TestEx16\RPanel\GOL.a(ListBox.o)

.nbss               0x093c          0x6
 .nbss              0x093c          0x6 H:\PIC\TestEx16\RPanel\GOL.a(CustomControlDemo.o)

.ndata              0x0942          0x6
 .ndata             0x0942          0x6 i:/usb/microchip/mplab c30/bin/../lib\libc-coff.a(malloc.o)
                    0x0942                  _Size_block
                    0x0944                  _Aldata

.ndata              0x0948          0x4
 .ndata             0x0948          0x4 H:\PIC\TestEx16\RPanel\GOL.a(RoundDial.o)

.nbss               0x094c          0x4
 .nbss              0x094c          0x4 H:\PIC\TestEx16\RPanel\GOL.a(RoundDial.o)

.ndata              0x0950          0x4
 .ndata             0x0950          0x4 H:\PIC\TestEx16\RPanel\GOL.a(Meter.o)

.nbss               0x0954          0x2
 .nbss              0x0954          0x2 H:\PIC\TestEx16\RPanel\Objects\TouchScreen.o

.ndata              0x0956          0x2
 .ndata             0x0956          0x2 H:\PIC\TestEx16\RPanel\GOL.a(Primitive.o)

.nbss               0x0958          0x2
 .nbss              0x0958          0x2 H:\PIC\TestEx16\RPanel\GOL.a(Window.o)

.nbss               0x095a          0x2
 .nbss              0x095a          0x2 H:\PIC\TestEx16\RPanel\GOL.a(CheckBox.o)

.ndata              0x095c          0x2
 .ndata             0x095c          0x2 H:\PIC\TestEx16\RPanel\GOL.a(RadioButton.o)
                    0x095c                  _pListButtons

.nbss               0x095e          0x2
 .nbss              0x095e          0x2 H:\PIC\TestEx16\RPanel\GOL.a(EditBox.o)

.nbss               0x0960          0x2
 .nbss              0x0960          0x2 i:/usb/microchip/mplab c30/bin/../lib\libm-coff.a(errno.o)
                    0x0960                  errno

.nbss               0x0962          0x2
 .nbss              0x0962          0x2 i:/usb/microchip/mplab c30/bin/../lib\libpic30-coff.a(brk.o)
                    0x0962                  __curbrk

.data               0x0964       0x1580
 .data              0x0964       0x1580 H:\PIC\TestEx16\RPanel\GOL.a(GOLFontDefault.o)
                    0x0964                  L1191258975

.dinit            0x008b3c        0xf3c
 .dinit           0x008b3c        0xf3c data_init

.init             0x009a78         0x80
 .init            0x009a78         0x80 i:/usb/microchip/mplab c30/bin/../lib\libpic30-coff.a(crt0.o)
                  0x009a78                  _resetPRI
                  0x009a78                  _reset
                  0x009a8c                  _psv_init
                  0x009a9c                  _data_init

.isr              0x009af8          0x2
 .isr             0x009af8          0x2 default_isr
                  0x009af8                  _DefaultInterrupt

Cross Reference Table

Symbol                                            File
AD1CHS                                            H:\PIC\TestEx16\RPanel\Objects\TouchScreen.o
AD1CON1                                           H:\PIC\TestEx16\RPanel\Objects\TouchScreen.o
AD1CON1bits                                       H:\PIC\TestEx16\RPanel\Objects\TouchScreen.o
AD1CON2                                           H:\PIC\TestEx16\RPanel\Objects\TouchScreen.o
AD1CON3                                           H:\PIC\TestEx16\RPanel\Objects\TouchScreen.o
AD1CSSL                                           H:\PIC\TestEx16\RPanel\Objects\TouchScreen.o
AD1PCFGbits                                       H:\PIC\TestEx16\RPanel\Objects\TouchScreen.o
ADC1BUF0                                          H:\PIC\TestEx16\RPanel\Objects\TouchScreen.o
Arc                                               H:\PIC\TestEx16\RPanel\GOL.a(Primitive.o)
                                                  H:\PIC\TestEx16\RPanel\GOL.a(Meter.o)
                                                  H:\PIC\TestEx16\RPanel\GOL.a(GOL.o)
Arial_BigNumbers                                  H:\PIC\TestEx16\RPanel\Objects\NumBFont.o
                                                  H:\PIC\TestEx16\RPanel\Objects\makeSchemes.o
Bar                                               H:\PIC\TestEx16\RPanel\GOL.a(S6d0129L.o)
                                                  H:\PIC\TestEx16\RPanel\GOL.a(CustomControlDemo.o)
                                                  H:\PIC\TestEx16\RPanel\GOL.a(Meter.o)
                                                  H:\PIC\TestEx16\RPanel\GOL.a(GroupBox.o)
                                                  H:\PIC\TestEx16\RPanel\GOL.a(Picture.o)
                                                  H:\PIC\TestEx16\RPanel\GOL.a(Slider.o)
                                                  H:\PIC\TestEx16\RPanel\GOL.a(EditBox.o)
                                                  H:\PIC\TestEx16\RPanel\GOL.a(RadioButton.o)
                                                  H:\PIC\TestEx16\RPanel\GOL.a(CheckBox.o)
                                                  H:\PIC\TestEx16\RPanel\GOL.a(ListBox.o)
                                                  H:\PIC\TestEx16\RPanel\GOL.a(StaticText.o)
                                                  H:\PIC\TestEx16\RPanel\GOL.a(Button.o)
                                                  H:\PIC\TestEx16\RPanel\GOL.a(RoundDial.o)
                                                  H:\PIC\TestEx16\RPanel\GOL.a(Window.o)
                                                  H:\PIC\TestEx16\RPanel\GOL.a(GOL.o)
                                                  H:\PIC\TestEx16\RPanel\GOL.a(Primitive.o)
                                                  H:\PIC\TestEx16\RPanel\Objects\ProgressBar.o
Bevel                                             H:\PIC\TestEx16\RPanel\GOL.a(Primitive.o)
                                                  H:\PIC\TestEx16\RPanel\GOL.a(Picture.o)
                                                  H:\PIC\TestEx16\RPanel\GOL.a(Slider.o)
                                                  H:\PIC\TestEx16\RPanel\GOL.a(RadioButton.o)
                                                  H:\PIC\TestEx16\RPanel\GOL.a(CheckBox.o)
                                                  H:\PIC\TestEx16\RPanel\GOL.a(ListBox.o)
                                                  H:\PIC\TestEx16\RPanel\GOL.a(StaticText.o)
                                                  H:\PIC\TestEx16\RPanel\GOL.a(Button.o)
                                                  H:\PIC\TestEx16\RPanel\GOL.a(RoundDial.o)
                                                  H:\PIC\TestEx16\RPanel\GOL.a(GOL.o)
BtnCreate                                         H:\PIC\TestEx16\RPanel\GOL.a(Button.o)
                                                  H:\PIC\TestEx16\RPanel\Objects\makePage.o
BtnDraw                                           H:\PIC\TestEx16\RPanel\GOL.a(Button.o)
                                                  H:\PIC\TestEx16\RPanel\GOL.a(GOL.o)
BtnMsgDefault                                     H:\PIC\TestEx16\RPanel\GOL.a(Button.o)
                                                  H:\PIC\TestEx16\RPanel\GOL.a(GOL.o)
BtnSetText                                        H:\PIC\TestEx16\RPanel\GOL.a(Button.o)
BtnTranslateMsg                                   H:\PIC\TestEx16\RPanel\GOL.a(Button.o)
                                                  H:\PIC\TestEx16\RPanel\GOL.a(GOL.o)
CORCON                                            i:/usb/microchip/mplab c30/bin/../lib\libpic30-coff.a(crt0.o)
                                                  i:/usb/microchip/mplab c30/bin/../lib\libpic30-coff.a(crt1.o)
CbCreate                                          H:\PIC\TestEx16\RPanel\GOL.a(CheckBox.o)
CbDraw                                            H:\PIC\TestEx16\RPanel\GOL.a(CheckBox.o)
                                                  H:\PIC\TestEx16\RPanel\GOL.a(GOL.o)
CbMsgDefault                                      H:\PIC\TestEx16\RPanel\GOL.a(CheckBox.o)
                                                  H:\PIC\TestEx16\RPanel\GOL.a(GOL.o)
CbSetText                                         H:\PIC\TestEx16\RPanel\GOL.a(CheckBox.o)
CbTranslateMsg                                    H:\PIC\TestEx16\RPanel\GOL.a(CheckBox.o)
                                                  H:\PIC\TestEx16\RPanel\GOL.a(GOL.o)
CcCreate                                          H:\PIC\TestEx16\RPanel\GOL.a(CustomControlDemo.o)
CcDraw                                            H:\PIC\TestEx16\RPanel\GOL.a(CustomControlDemo.o)
                                                  H:\PIC\TestEx16\RPanel\GOL.a(GOL.o)
CcMsgDefault                                      H:\PIC\TestEx16\RPanel\GOL.a(CustomControlDemo.o)
                                                  H:\PIC\TestEx16\RPanel\GOL.a(GOL.o)
CcTranslateMsg                                    H:\PIC\TestEx16\RPanel\GOL.a(CustomControlDemo.o)
                                                  H:\PIC\TestEx16\RPanel\GOL.a(GOL.o)
ClearDevice                                       H:\PIC\TestEx16\RPanel\GOL.a(S6d0129L.o)
                                                  H:\PIC\TestEx16\RPanel\GOL.a(Primitive.o)
                                                  H:\PIC\TestEx16\RPanel\Objects\makePage.o
                                                  H:\PIC\TestEx16\RPanel\Objects\TouchScreen.o
DelayMs                                           H:\PIC\TestEx16\RPanel\GOL.a(S6d0129L.o)
                                                  H:\PIC\TestEx16\RPanel\Objects\TouchScreen.o
DrawPoly                                          H:\PIC\TestEx16\RPanel\GOL.a(Primitive.o)
EEPROMInit                                        H:\PIC\TestEx16\RPanel\Objects\EEPROM.o
                                                  H:\PIC\TestEx16\RPanel\Objects\RPanel_main.o
EEPROMReadArray                                   H:\PIC\TestEx16\RPanel\Objects\EEPROM.o
EEPROMReadByte                                    H:\PIC\TestEx16\RPanel\Objects\EEPROM.o
EEPROMReadStatus                                  H:\PIC\TestEx16\RPanel\Objects\EEPROM.o
EEPROMReadWord                                    H:\PIC\TestEx16\RPanel\Objects\EEPROM.o
                                                  H:\PIC\TestEx16\RPanel\Objects\RPanel_main.o
                                                  H:\PIC\TestEx16\RPanel\Objects\TouchScreen.o
EEPROMWriteArray                                  H:\PIC\TestEx16\RPanel\Objects\EEPROM.o
EEPROMWriteByte                                   H:\PIC\TestEx16\RPanel\Objects\EEPROM.o
EEPROMWriteEnable                                 H:\PIC\TestEx16\RPanel\Objects\EEPROM.o
EEPROMWriteWord                                   H:\PIC\TestEx16\RPanel\Objects\EEPROM.o
                                                  H:\PIC\TestEx16\RPanel\Objects\RPanel_main.o
                                                  H:\PIC\TestEx16\RPanel\Objects\TouchScreen.o
EbAddChar                                         H:\PIC\TestEx16\RPanel\GOL.a(EditBox.o)
EbCreate                                          H:\PIC\TestEx16\RPanel\GOL.a(EditBox.o)
EbDeleteChar                                      H:\PIC\TestEx16\RPanel\GOL.a(EditBox.o)
EbDraw                                            H:\PIC\TestEx16\RPanel\GOL.a(EditBox.o)
                                                  H:\PIC\TestEx16\RPanel\GOL.a(GOL.o)
EbMsgDefault                                      H:\PIC\TestEx16\RPanel\GOL.a(EditBox.o)
                                                  H:\PIC\TestEx16\RPanel\GOL.a(GOL.o)
EbSetText                                         H:\PIC\TestEx16\RPanel\GOL.a(EditBox.o)
EbTranslateMsg                                    H:\PIC\TestEx16\RPanel\GOL.a(EditBox.o)
                                                  H:\PIC\TestEx16\RPanel\GOL.a(GOL.o)
FillBevel                                         H:\PIC\TestEx16\RPanel\GOL.a(Primitive.o)
                                                  H:\PIC\TestEx16\RPanel\GOL.a(RadioButton.o)
                                                  H:\PIC\TestEx16\RPanel\GOL.a(RoundDial.o)
                                                  H:\PIC\TestEx16\RPanel\GOL.a(GOL.o)
GOLAddObject                                      H:\PIC\TestEx16\RPanel\GOL.a(GOL.o)
                                                  H:\PIC\TestEx16\RPanel\GOL.a(CustomControlDemo.o)
                                                  H:\PIC\TestEx16\RPanel\GOL.a(Meter.o)
                                                  H:\PIC\TestEx16\RPanel\GOL.a(GroupBox.o)
                                                  H:\PIC\TestEx16\RPanel\GOL.a(Picture.o)
                                                  H:\PIC\TestEx16\RPanel\GOL.a(Slider.o)
                                                  H:\PIC\TestEx16\RPanel\GOL.a(EditBox.o)
                                                  H:\PIC\TestEx16\RPanel\GOL.a(RadioButton.o)
                                                  H:\PIC\TestEx16\RPanel\GOL.a(CheckBox.o)
                                                  H:\PIC\TestEx16\RPanel\GOL.a(ListBox.o)
                                                  H:\PIC\TestEx16\RPanel\GOL.a(StaticText.o)
                                                  H:\PIC\TestEx16\RPanel\GOL.a(Button.o)
                                                  H:\PIC\TestEx16\RPanel\GOL.a(RoundDial.o)
                                                  H:\PIC\TestEx16\RPanel\GOL.a(Window.o)
                                                  H:\PIC\TestEx16\RPanel\Objects\ProgressBar.o
GOLCanBeFocused                                   H:\PIC\TestEx16\RPanel\GOL.a(GOL.o)
GOLCreateScheme                                   H:\PIC\TestEx16\RPanel\GOL.a(GOL.o)
                                                  H:\PIC\TestEx16\RPanel\Objects\makeSchemes.o
GOLDraw                                           H:\PIC\TestEx16\RPanel\GOL.a(GOL.o)
                                                  H:\PIC\TestEx16\RPanel\Objects\RPanel_main.o
GOLDrawCallback                                   H:\PIC\TestEx16\RPanel\Objects\RPanel_main.o
                                                  H:\PIC\TestEx16\RPanel\GOL.a(GOL.o)
GOLFindObject                                     H:\PIC\TestEx16\RPanel\GOL.a(GOL.o)
                                                  H:\PIC\TestEx16\RPanel\Objects\RPanel_main.o
GOLFontDefault                                    H:\PIC\TestEx16\RPanel\GOL.a(GOLFontDefault.o)
                                                  H:\PIC\TestEx16\RPanel\GOL.a(GOL.o)
                                                  H:\PIC\TestEx16\RPanel\Objects\TouchScreen.o
GOLFree                                           H:\PIC\TestEx16\RPanel\GOL.a(GOL.o)
                                                  H:\PIC\TestEx16\RPanel\Objects\makePage.o
GOLGetFocusNext                                   H:\PIC\TestEx16\RPanel\GOL.a(GOL.o)
GOLInit                                           H:\PIC\TestEx16\RPanel\GOL.a(GOL.o)
                                                  H:\PIC\TestEx16\RPanel\Objects\RPanel_main.o
GOLMsg                                            H:\PIC\TestEx16\RPanel\GOL.a(GOL.o)
                                                  H:\PIC\TestEx16\RPanel\Objects\RPanel_main.o
GOLMsgCallback                                    H:\PIC\TestEx16\RPanel\Objects\RPanel_main.o
                                                  H:\PIC\TestEx16\RPanel\GOL.a(GOL.o)
GOLPanelDrawTsk                                   H:\PIC\TestEx16\RPanel\GOL.a(GOL.o)
                                                  H:\PIC\TestEx16\RPanel\GOL.a(CustomControlDemo.o)
                                                  H:\PIC\TestEx16\RPanel\GOL.a(Meter.o)
                                                  H:\PIC\TestEx16\RPanel\GOL.a(Slider.o)
                                                  H:\PIC\TestEx16\RPanel\GOL.a(EditBox.o)
                                                  H:\PIC\TestEx16\RPanel\GOL.a(RadioButton.o)
                                                  H:\PIC\TestEx16\RPanel\GOL.a(CheckBox.o)
                                                  H:\PIC\TestEx16\RPanel\GOL.a(ListBox.o)
                                                  H:\PIC\TestEx16\RPanel\GOL.a(Button.o)
                                                  H:\PIC\TestEx16\RPanel\GOL.a(RoundDial.o)
                                                  H:\PIC\TestEx16\RPanel\GOL.a(Window.o)
                                                  H:\PIC\TestEx16\RPanel\Objects\ProgressBar.o
GOLRedrawRec                                      H:\PIC\TestEx16\RPanel\GOL.a(GOL.o)
GOLSetFocus                                       H:\PIC\TestEx16\RPanel\GOL.a(GOL.o)
                                                  H:\PIC\TestEx16\RPanel\GOL.a(Slider.o)
                                                  H:\PIC\TestEx16\RPanel\GOL.a(EditBox.o)
                                                  H:\PIC\TestEx16\RPanel\GOL.a(RadioButton.o)
                                                  H:\PIC\TestEx16\RPanel\GOL.a(CheckBox.o)
                                                  H:\PIC\TestEx16\RPanel\GOL.a(ListBox.o)
                                                  H:\PIC\TestEx16\RPanel\GOL.a(Button.o)
GbCreate                                          H:\PIC\TestEx16\RPanel\GOL.a(GroupBox.o)
GbDraw                                            H:\PIC\TestEx16\RPanel\GOL.a(GroupBox.o)
                                                  H:\PIC\TestEx16\RPanel\GOL.a(GOL.o)
GbTranslateMsg                                    H:\PIC\TestEx16\RPanel\GOL.a(GroupBox.o)
                                                  H:\PIC\TestEx16\RPanel\GOL.a(GOL.o)
GetImageHeight                                    H:\PIC\TestEx16\RPanel\GOL.a(Primitive.o)
                                                  H:\PIC\TestEx16\RPanel\GOL.a(Picture.o)
                                                  H:\PIC\TestEx16\RPanel\GOL.a(Window.o)
GetImageWidth                                     H:\PIC\TestEx16\RPanel\GOL.a(Primitive.o)
                                                  H:\PIC\TestEx16\RPanel\GOL.a(Picture.o)
                                                  H:\PIC\TestEx16\RPanel\GOL.a(Window.o)
GetPixel                                          H:\PIC\TestEx16\RPanel\GOL.a(S6d0129L.o)
GetTextHeight                                     H:\PIC\TestEx16\RPanel\GOL.a(Primitive.o)
                                                  H:\PIC\TestEx16\RPanel\GOL.a(Meter.o)
                                                  H:\PIC\TestEx16\RPanel\GOL.a(GroupBox.o)
                                                  H:\PIC\TestEx16\RPanel\GOL.a(EditBox.o)
                                                  H:\PIC\TestEx16\RPanel\GOL.a(RadioButton.o)
                                                  H:\PIC\TestEx16\RPanel\GOL.a(CheckBox.o)
                                                  H:\PIC\TestEx16\RPanel\GOL.a(ListBox.o)
                                                  H:\PIC\TestEx16\RPanel\GOL.a(StaticText.o)
                                                  H:\PIC\TestEx16\RPanel\GOL.a(Button.o)
                                                  H:\PIC\TestEx16\RPanel\GOL.a(Window.o)
                                                  H:\PIC\TestEx16\RPanel\Objects\ProgressBar.o
                                                  H:\PIC\TestEx16\RPanel\Objects\TouchScreen.o
GetTextWidth                                      H:\PIC\TestEx16\RPanel\GOL.a(Primitive.o)
                                                  H:\PIC\TestEx16\RPanel\GOL.a(Meter.o)
                                                  H:\PIC\TestEx16\RPanel\GOL.a(GroupBox.o)
                                                  H:\PIC\TestEx16\RPanel\GOL.a(EditBox.o)
                                                  H:\PIC\TestEx16\RPanel\GOL.a(ListBox.o)
                                                  H:\PIC\TestEx16\RPanel\GOL.a(StaticText.o)
                                                  H:\PIC\TestEx16\RPanel\GOL.a(Button.o)
                                                  H:\PIC\TestEx16\RPanel\Objects\ProgressBar.o
                                                  H:\PIC\TestEx16\RPanel\Objects\TouchScreen.o
IEC0bits                                          H:\PIC\TestEx16\RPanel\Objects\RPanel_main.o
                                                  H:\PIC\TestEx16\RPanel\Objects\TouchScreen.o
IFS0bits                                          H:\PIC\TestEx16\RPanel\Objects\RPanel_main.o
                                                  H:\PIC\TestEx16\RPanel\Objects\TouchScreen.o
InitGraph                                         H:\PIC\TestEx16\RPanel\GOL.a(Primitive.o)
                                                  H:\PIC\TestEx16\RPanel\GOL.a(GOL.o)
L1191258975                                       H:\PIC\TestEx16\RPanel\GOL.a(GOLFontDefault.o)
L2695                                             H:\PIC\TestEx16\RPanel\Objects\NumBFont.o
LATA                                              H:\PIC\TestEx16\RPanel\Objects\RPanel_main.o
LATBbits                                          H:\PIC\TestEx16\RPanel\Objects\TouchScreen.o
LATCbits                                          H:\PIC\TestEx16\RPanel\GOL.a(S6d0129L.o)
LATDbits                                          H:\PIC\TestEx16\RPanel\GOL.a(S6d0129L.o)
LbAddItem                                         H:\PIC\TestEx16\RPanel\GOL.a(ListBox.o)
LbChangeSel                                       H:\PIC\TestEx16\RPanel\GOL.a(ListBox.o)
LbCreate                                          H:\PIC\TestEx16\RPanel\GOL.a(ListBox.o)
LbDelItem                                         H:\PIC\TestEx16\RPanel\GOL.a(ListBox.o)
LbDelItemsList                                    H:\PIC\TestEx16\RPanel\GOL.a(ListBox.o)
                                                  H:\PIC\TestEx16\RPanel\GOL.a(GOL.o)
LbDraw                                            H:\PIC\TestEx16\RPanel\GOL.a(ListBox.o)
                                                  H:\PIC\TestEx16\RPanel\GOL.a(GOL.o)
LbGetFocusedItem                                  H:\PIC\TestEx16\RPanel\GOL.a(ListBox.o)
LbGetSel                                          H:\PIC\TestEx16\RPanel\GOL.a(ListBox.o)
LbMsgDefault                                      H:\PIC\TestEx16\RPanel\GOL.a(ListBox.o)
                                                  H:\PIC\TestEx16\RPanel\GOL.a(GOL.o)
LbSetFocusedItem                                  H:\PIC\TestEx16\RPanel\GOL.a(ListBox.o)
LbTranslateMsg                                    H:\PIC\TestEx16\RPanel\GOL.a(ListBox.o)
                                                  H:\PIC\TestEx16\RPanel\GOL.a(GOL.o)
Line                                              H:\PIC\TestEx16\RPanel\GOL.a(Primitive.o)
                                                  H:\PIC\TestEx16\RPanel\GOL.a(Meter.o)
                                                  H:\PIC\TestEx16\RPanel\GOL.a(GroupBox.o)
                                                  H:\PIC\TestEx16\RPanel\GOL.a(Slider.o)
                                                  H:\PIC\TestEx16\RPanel\Objects\TouchScreen.o
MtrCreate                                         H:\PIC\TestEx16\RPanel\GOL.a(Meter.o)
MtrDraw                                           H:\PIC\TestEx16\RPanel\GOL.a(Meter.o)
                                                  H:\PIC\TestEx16\RPanel\GOL.a(GOL.o)
MtrMsgDefault                                     H:\PIC\TestEx16\RPanel\GOL.a(Meter.o)
                                                  H:\PIC\TestEx16\RPanel\GOL.a(GOL.o)
MtrSetVal                                         H:\PIC\TestEx16\RPanel\GOL.a(Meter.o)
MtrTranslateMsg                                   H:\PIC\TestEx16\RPanel\GOL.a(Meter.o)
                                                  H:\PIC\TestEx16\RPanel\GOL.a(GOL.o)
OutChar                                           H:\PIC\TestEx16\RPanel\GOL.a(Primitive.o)
                                                  H:\PIC\TestEx16\RPanel\GOL.a(StaticText.o)
OutText                                           H:\PIC\TestEx16\RPanel\GOL.a(Primitive.o)
                                                  H:\PIC\TestEx16\RPanel\GOL.a(Meter.o)
                                                  H:\PIC\TestEx16\RPanel\GOL.a(GroupBox.o)
                                                  H:\PIC\TestEx16\RPanel\GOL.a(EditBox.o)
                                                  H:\PIC\TestEx16\RPanel\GOL.a(RadioButton.o)
                                                  H:\PIC\TestEx16\RPanel\GOL.a(CheckBox.o)
                                                  H:\PIC\TestEx16\RPanel\GOL.a(ListBox.o)
                                                  H:\PIC\TestEx16\RPanel\GOL.a(Button.o)
                                                  H:\PIC\TestEx16\RPanel\GOL.a(Window.o)
OutTextXY                                         H:\PIC\TestEx16\RPanel\GOL.a(Primitive.o)
                                                  H:\PIC\TestEx16\RPanel\Objects\TouchScreen.o
PMADDR                                            H:\PIC\TestEx16\RPanel\GOL.a(S6d0129L.o)
PMAENbits                                         H:\PIC\TestEx16\RPanel\GOL.a(S6d0129L.o)
PMCONbits                                         H:\PIC\TestEx16\RPanel\GOL.a(S6d0129L.o)
PMDIN1                                            H:\PIC\TestEx16\RPanel\GOL.a(S6d0129L.o)
PMMODE                                            H:\PIC\TestEx16\RPanel\GOL.a(S6d0129L.o)
PMMODEbits                                        H:\PIC\TestEx16\RPanel\GOL.a(S6d0129L.o)
PORTAbits                                         H:\PIC\TestEx16\RPanel\Objects\RPanel_main.o
PORTDbits                                         H:\PIC\TestEx16\RPanel\Objects\RPanel_main.o
                                                  H:\PIC\TestEx16\RPanel\Objects\EEPROM.o
PR1                                               H:\PIC\TestEx16\RPanel\Objects\RPanel_main.o
PR3                                               H:\PIC\TestEx16\RPanel\Objects\TouchScreen.o
PSVPAG                                            i:/usb/microchip/mplab c30/bin/../lib\libpic30-coff.a(crt0.o)
                                                  i:/usb/microchip/mplab c30/bin/../lib\libpic30-coff.a(crt1.o)
                                                  H:\PIC\TestEx16\RPanel\GOL.a(S6d0129L.o)
                                                  H:\PIC\TestEx16\RPanel\GOL.a(Primitive.o)
                                                  H:\PIC\TestEx16\RPanel\Objects\TouchScreen.o
PbCreate                                          H:\PIC\TestEx16\RPanel\Objects\ProgressBar.o
                                                  H:\PIC\TestEx16\RPanel\Objects\makePage.o
PbDraw                                            H:\PIC\TestEx16\RPanel\Objects\ProgressBar.o
                                                  H:\PIC\TestEx16\RPanel\GOL.a(GOL.o)
PbSetPos                                          H:\PIC\TestEx16\RPanel\Objects\ProgressBar.o
                                                  H:\PIC\TestEx16\RPanel\Objects\RPanel_main.o
PbShortToString                                   H:\PIC\TestEx16\RPanel\Objects\ProgressBar.o
PbTranslateMsg                                    H:\PIC\TestEx16\RPanel\Objects\ProgressBar.o
PictCreate                                        H:\PIC\TestEx16\RPanel\GOL.a(Picture.o)
PictDraw                                          H:\PIC\TestEx16\RPanel\GOL.a(Picture.o)
                                                  H:\PIC\TestEx16\RPanel\GOL.a(GOL.o)
PictTranslateMsg                                  H:\PIC\TestEx16\RPanel\GOL.a(Picture.o)
                                                  H:\PIC\TestEx16\RPanel\GOL.a(GOL.o)
PutImage                                          H:\PIC\TestEx16\RPanel\GOL.a(S6d0129L.o)
                                                  H:\PIC\TestEx16\RPanel\GOL.a(Picture.o)
                                                  H:\PIC\TestEx16\RPanel\GOL.a(Window.o)
                                                  H:\PIC\TestEx16\RPanel\GOL.a(GOL.o)
PutImage16BPP                                     H:\PIC\TestEx16\RPanel\GOL.a(S6d0129L.o)
PutImage1BPP                                      H:\PIC\TestEx16\RPanel\GOL.a(S6d0129L.o)
PutImage4BPP                                      H:\PIC\TestEx16\RPanel\GOL.a(S6d0129L.o)
PutImage8BPP                                      H:\PIC\TestEx16\RPanel\GOL.a(S6d0129L.o)
PutPixel                                          H:\PIC\TestEx16\RPanel\GOL.a(S6d0129L.o)
                                                  H:\PIC\TestEx16\RPanel\GOL.a(Primitive.o)
RCOUNT                                            H:\PIC\TestEx16\RPanel\Objects\RPanel_main.o
RbCreate                                          H:\PIC\TestEx16\RPanel\GOL.a(RadioButton.o)
RbDraw                                            H:\PIC\TestEx16\RPanel\GOL.a(RadioButton.o)
                                                  H:\PIC\TestEx16\RPanel\GOL.a(GOL.o)
RbGetCheck                                        H:\PIC\TestEx16\RPanel\GOL.a(RadioButton.o)
RbMsgDefault                                      H:\PIC\TestEx16\RPanel\GOL.a(RadioButton.o)
                                                  H:\PIC\TestEx16\RPanel\GOL.a(GOL.o)
RbSetCheck                                        H:\PIC\TestEx16\RPanel\GOL.a(RadioButton.o)
RbSetText                                         H:\PIC\TestEx16\RPanel\GOL.a(RadioButton.o)
RbTranslateMsg                                    H:\PIC\TestEx16\RPanel\GOL.a(RadioButton.o)
                                                  H:\PIC\TestEx16\RPanel\GOL.a(GOL.o)
RdiaCreate                                        H:\PIC\TestEx16\RPanel\GOL.a(RoundDial.o)
                                                  H:\PIC\TestEx16\RPanel\Objects\makePage.o
RdiaDraw                                          H:\PIC\TestEx16\RPanel\GOL.a(RoundDial.o)
                                                  H:\PIC\TestEx16\RPanel\GOL.a(GOL.o)
RdiaMsgDefault                                    H:\PIC\TestEx16\RPanel\GOL.a(RoundDial.o)
                                                  H:\PIC\TestEx16\RPanel\GOL.a(GOL.o)
RdiaTranslateMsg                                  H:\PIC\TestEx16\RPanel\GOL.a(RoundDial.o)
                                                  H:\PIC\TestEx16\RPanel\GOL.a(GOL.o)
ResetDevice                                       H:\PIC\TestEx16\RPanel\GOL.a(S6d0129L.o)
                                                  H:\PIC\TestEx16\RPanel\GOL.a(Primitive.o)
SPI2BUF                                           H:\PIC\TestEx16\RPanel\Objects\EEPROM.o
SPI2CON1                                          H:\PIC\TestEx16\RPanel\Objects\EEPROM.o
SPI2CON1bits                                      H:\PIC\TestEx16\RPanel\Objects\EEPROM.o
SPI2CON2                                          H:\PIC\TestEx16\RPanel\Objects\EEPROM.o
SPI2STAT                                          H:\PIC\TestEx16\RPanel\Objects\EEPROM.o
SPI2STATbits                                      H:\PIC\TestEx16\RPanel\Objects\EEPROM.o
SPIPut                                            H:\PIC\TestEx16\RPanel\Objects\EEPROM.o
SPLIM                                             i:/usb/microchip/mplab c30/bin/../lib\libpic30-coff.a(crt0.o)
                                                  i:/usb/microchip/mplab c30/bin/../lib\libpic30-coff.a(crt1.o)
SetFont                                           H:\PIC\TestEx16\RPanel\GOL.a(Primitive.o)
                                                  H:\PIC\TestEx16\RPanel\GOL.a(Meter.o)
                                                  H:\PIC\TestEx16\RPanel\GOL.a(GroupBox.o)
                                                  H:\PIC\TestEx16\RPanel\GOL.a(EditBox.o)
                                                  H:\PIC\TestEx16\RPanel\GOL.a(RadioButton.o)
                                                  H:\PIC\TestEx16\RPanel\GOL.a(CheckBox.o)
                                                  H:\PIC\TestEx16\RPanel\GOL.a(ListBox.o)
                                                  H:\PIC\TestEx16\RPanel\GOL.a(StaticText.o)
                                                  H:\PIC\TestEx16\RPanel\GOL.a(Button.o)
                                                  H:\PIC\TestEx16\RPanel\GOL.a(Window.o)
                                                  H:\PIC\TestEx16\RPanel\Objects\ProgressBar.o
                                                  H:\PIC\TestEx16\RPanel\Objects\TouchScreen.o
SetReg                                            H:\PIC\TestEx16\RPanel\GOL.a(S6d0129L.o)
SldCreate                                         H:\PIC\TestEx16\RPanel\GOL.a(Slider.o)
SldDraw                                           H:\PIC\TestEx16\RPanel\GOL.a(Slider.o)
                                                  H:\PIC\TestEx16\RPanel\GOL.a(GOL.o)
SldGetHeight                                      H:\PIC\TestEx16\RPanel\GOL.a(Slider.o)
SldGetMinMaxPos                                   H:\PIC\TestEx16\RPanel\GOL.a(Slider.o)
SldGetWidth                                       H:\PIC\TestEx16\RPanel\GOL.a(Slider.o)
SldMsgDefault                                     H:\PIC\TestEx16\RPanel\GOL.a(Slider.o)
                                                  H:\PIC\TestEx16\RPanel\GOL.a(GOL.o)
SldSetPage                                        H:\PIC\TestEx16\RPanel\GOL.a(Slider.o)
SldSetPos                                         H:\PIC\TestEx16\RPanel\GOL.a(Slider.o)
SldSetRange                                       H:\PIC\TestEx16\RPanel\GOL.a(Slider.o)
SldSetThumbSize                                   H:\PIC\TestEx16\RPanel\GOL.a(Slider.o)
SldTranslateMsg                                   H:\PIC\TestEx16\RPanel\GOL.a(Slider.o)
                                                  H:\PIC\TestEx16\RPanel\GOL.a(GOL.o)
StCreate                                          H:\PIC\TestEx16\RPanel\GOL.a(StaticText.o)
                                                  H:\PIC\TestEx16\RPanel\Objects\makePage.o
StDraw                                            H:\PIC\TestEx16\RPanel\GOL.a(StaticText.o)
                                                  H:\PIC\TestEx16\RPanel\GOL.a(GOL.o)
StSetText                                         H:\PIC\TestEx16\RPanel\GOL.a(StaticText.o)
StTranslateMsg                                    H:\PIC\TestEx16\RPanel\GOL.a(StaticText.o)
                                                  H:\PIC\TestEx16\RPanel\GOL.a(GOL.o)
T1CON                                             H:\PIC\TestEx16\RPanel\Objects\RPanel_main.o
T3CONbits                                         H:\PIC\TestEx16\RPanel\Objects\TouchScreen.o
TBLPAG                                            i:/usb/microchip/mplab c30/bin/../lib\libpic30-coff.a(crt0.o)
TMR1                                              H:\PIC\TestEx16\RPanel\Objects\RPanel_main.o
TMR3                                              H:\PIC\TestEx16\RPanel\Objects\TouchScreen.o
TRISA                                             H:\PIC\TestEx16\RPanel\Objects\RPanel_main.o
TRISBbits                                         H:\PIC\TestEx16\RPanel\Objects\TouchScreen.o
TRISCbits                                         H:\PIC\TestEx16\RPanel\GOL.a(S6d0129L.o)
TRISDbits                                         H:\PIC\TestEx16\RPanel\GOL.a(S6d0129L.o)
                                                  H:\PIC\TestEx16\RPanel\Objects\EEPROM.o
TRISGbits                                         H:\PIC\TestEx16\RPanel\Objects\EEPROM.o
TouchCalibration                                  H:\PIC\TestEx16\RPanel\Objects\TouchScreen.o
                                                  H:\PIC\TestEx16\RPanel\Objects\RPanel_main.o
TouchGetCalPoints                                 H:\PIC\TestEx16\RPanel\Objects\TouchScreen.o
TouchGetMsg                                       H:\PIC\TestEx16\RPanel\Objects\TouchScreen.o
                                                  H:\PIC\TestEx16\RPanel\Objects\RPanel_main.o
TouchGetX                                         H:\PIC\TestEx16\RPanel\Objects\TouchScreen.o
TouchGetY                                         H:\PIC\TestEx16\RPanel\Objects\TouchScreen.o
TouchInit                                         H:\PIC\TestEx16\RPanel\Objects\TouchScreen.o
                                                  H:\PIC\TestEx16\RPanel\Objects\RPanel_main.o
TouchLoadCalibration                              H:\PIC\TestEx16\RPanel\Objects\TouchScreen.o
                                                  H:\PIC\TestEx16\RPanel\Objects\RPanel_main.o
TouchStoreCalibration                             H:\PIC\TestEx16\RPanel\Objects\TouchScreen.o
                                                  H:\PIC\TestEx16\RPanel\Objects\RPanel_main.o
WndCreate                                         H:\PIC\TestEx16\RPanel\GOL.a(Window.o)
                                                  H:\PIC\TestEx16\RPanel\Objects\makePage.o
WndDraw                                           H:\PIC\TestEx16\RPanel\GOL.a(Window.o)
                                                  H:\PIC\TestEx16\RPanel\GOL.a(GOL.o)
WndSetText                                        H:\PIC\TestEx16\RPanel\GOL.a(Window.o)
WndTranslateMsg                                   H:\PIC\TestEx16\RPanel\GOL.a(Window.o)
                                                  H:\PIC\TestEx16\RPanel\GOL.a(GOL.o)
_ADC1Interrupt                                    H:\PIC\TestEx16\RPanel\Objects\TouchScreen.o
_Aldata                                           i:/usb/microchip/mplab c30/bin/../lib\libc-coff.a(malloc.o)
                                                  i:/usb/microchip/mplab c30/bin/../lib\libc-coff.a(free.o)
_CONFIG1                                          H:\PIC\TestEx16\RPanel\Objects\configbits.o
_CONFIG2                                          H:\PIC\TestEx16\RPanel\Objects\configbits.o
_DefaultInterrupt                                 default_isr
_Getmem                                           i:/usb/microchip/mplab c30/bin/../lib\libc-coff.a(xgetmem.o)
                                                  i:/usb/microchip/mplab c30/bin/../lib\libc-coff.a(malloc.o)
_PROGRAM_END                                      H:\PIC\TestEx16\RPanel\Output\RPanel.cof
_SPLIM_init                                       H:\PIC\TestEx16\RPanel\Output\RPanel.cof
                                                  i:/usb/microchip/mplab c30/bin/../lib\libpic30-coff.a(crt0.o)
                                                  i:/usb/microchip/mplab c30/bin/../lib\libpic30-coff.a(crt1.o)
_SP_init                                          H:\PIC\TestEx16\RPanel\Output\RPanel.cof
                                                  i:/usb/microchip/mplab c30/bin/../lib\libpic30-coff.a(crt0.o)
                                                  i:/usb/microchip/mplab c30/bin/../lib\libpic30-coff.a(crt1.o)
_Size_block                                       i:/usb/microchip/mplab c30/bin/../lib\libc-coff.a(malloc.o)
_T1Interrupt                                      H:\PIC\TestEx16\RPanel\Objects\RPanel_main.o
_T3Interrupt                                      H:\PIC\TestEx16\RPanel\Objects\TouchScreen.o
__addsf3                                          i:/usb/microchip/mplab c30/bin/../lib\libm-coff.a(addsf3.o)
                                                  i:/usb/microchip/mplab c30/bin/../lib\libm-coff.a(fmodrem.o)
                                                  i:/usb/microchip/mplab c30/bin/../lib\libm-coff.a(sincosf.o)
__curbrk                                          i:/usb/microchip/mplab c30/bin/../lib\libpic30-coff.a(brk.o)
                                                  i:/usb/microchip/mplab c30/bin/../lib\libpic30-coff.a(sbrk.o)
__divsf3                                          i:/usb/microchip/mplab c30/bin/../lib\libm-coff.a(divsf3.o)
                                                  H:\PIC\TestEx16\RPanel\GOL.a(Meter.o)
__divsi3                                          i:/usb/microchip/mplab c30/bin/../lib\libm-coff.a(divsi3.o)
                                                  H:\PIC\TestEx16\RPanel\Objects\TouchScreen.o
__eqsf2                                           i:/usb/microchip/mplab c30/bin/../lib\libm-coff.a(feqltle.o)
__fixsfsi                                         i:/usb/microchip/mplab c30/bin/../lib\libm-coff.a(fixsfsi.o)
                                                  i:/usb/microchip/mplab c30/bin/../lib\libm-coff.a(sincosf.o)
                                                  H:\PIC\TestEx16\RPanel\GOL.a(Meter.o)
                                                  H:\PIC\TestEx16\RPanel\GOL.a(RoundDial.o)
__floatsisf                                       i:/usb/microchip/mplab c30/bin/../lib\libm-coff.a(floatsisf.o)
                                                  i:/usb/microchip/mplab c30/bin/../lib\libm-coff.a(sincosf.o)
                                                  H:\PIC\TestEx16\RPanel\GOL.a(Meter.o)
                                                  H:\PIC\TestEx16\RPanel\GOL.a(RoundDial.o)
__lesf2                                           i:/usb/microchip/mplab c30/bin/../lib\libm-coff.a(feqltle.o)
__ltsf2                                           i:/usb/microchip/mplab c30/bin/../lib\libm-coff.a(feqltle.o)
                                                  i:/usb/microchip/mplab c30/bin/../lib\libm-coff.a(sincosf.o)
__mulsf3                                          i:/usb/microchip/mplab c30/bin/../lib\libm-coff.a(mulsf3.o)
                                                  i:/usb/microchip/mplab c30/bin/../lib\libm-coff.a(sincosf.o)
                                                  H:\PIC\TestEx16\RPanel\GOL.a(Meter.o)
__subsf3                                          i:/usb/microchip/mplab c30/bin/../lib\libm-coff.a(addsf3.o)
                                                  i:/usb/microchip/mplab c30/bin/../lib\libm-coff.a(sincosf.o)
__udivsi3                                         i:/usb/microchip/mplab c30/bin/../lib\libm-coff.a(udivsi3.o)
                                                  i:/usb/microchip/mplab c30/bin/../lib\libm-coff.a(divsi3.o)
                                                  H:\PIC\TestEx16\RPanel\GOL.a(Meter.o)
                                                  H:\PIC\TestEx16\RPanel\GOL.a(Slider.o)
                                                  H:\PIC\TestEx16\RPanel\Objects\ProgressBar.o
_bootconst_psvpage                                H:\PIC\TestEx16\RPanel\Output\RPanel.cof
_calXMax                                          H:\PIC\TestEx16\RPanel\Objects\TouchScreen.o
_calXMin                                          H:\PIC\TestEx16\RPanel\Objects\TouchScreen.o
_calYMax                                          H:\PIC\TestEx16\RPanel\Objects\TouchScreen.o
_calYMin                                          H:\PIC\TestEx16\RPanel\Objects\TouchScreen.o
_clipBottom                                       H:\PIC\TestEx16\RPanel\GOL.a(S6d0129L.o)
                                                  H:\PIC\TestEx16\RPanel\GOL.a(EditBox.o)
                                                  H:\PIC\TestEx16\RPanel\GOL.a(ListBox.o)
                                                  H:\PIC\TestEx16\RPanel\GOL.a(StaticText.o)
_clipLeft                                         H:\PIC\TestEx16\RPanel\GOL.a(S6d0129L.o)
                                                  H:\PIC\TestEx16\RPanel\GOL.a(EditBox.o)
                                                  H:\PIC\TestEx16\RPanel\GOL.a(ListBox.o)
                                                  H:\PIC\TestEx16\RPanel\GOL.a(StaticText.o)
_clipRgn                                          H:\PIC\TestEx16\RPanel\GOL.a(S6d0129L.o)
                                                  H:\PIC\TestEx16\RPanel\GOL.a(EditBox.o)
                                                  H:\PIC\TestEx16\RPanel\GOL.a(ListBox.o)
                                                  H:\PIC\TestEx16\RPanel\GOL.a(StaticText.o)
                                                  H:\PIC\TestEx16\RPanel\GOL.a(Primitive.o)
_clipRight                                        H:\PIC\TestEx16\RPanel\GOL.a(S6d0129L.o)
                                                  H:\PIC\TestEx16\RPanel\GOL.a(EditBox.o)
                                                  H:\PIC\TestEx16\RPanel\GOL.a(ListBox.o)
                                                  H:\PIC\TestEx16\RPanel\GOL.a(StaticText.o)
_clipTop                                          H:\PIC\TestEx16\RPanel\GOL.a(S6d0129L.o)
                                                  H:\PIC\TestEx16\RPanel\GOL.a(EditBox.o)
                                                  H:\PIC\TestEx16\RPanel\GOL.a(ListBox.o)
                                                  H:\PIC\TestEx16\RPanel\GOL.a(StaticText.o)
_color                                            H:\PIC\TestEx16\RPanel\GOL.a(S6d0129L.o)
                                                  H:\PIC\TestEx16\RPanel\GOL.a(CustomControlDemo.o)
                                                  H:\PIC\TestEx16\RPanel\GOL.a(Meter.o)
                                                  H:\PIC\TestEx16\RPanel\GOL.a(GroupBox.o)
                                                  H:\PIC\TestEx16\RPanel\GOL.a(Picture.o)
                                                  H:\PIC\TestEx16\RPanel\GOL.a(Slider.o)
                                                  H:\PIC\TestEx16\RPanel\GOL.a(EditBox.o)
                                                  H:\PIC\TestEx16\RPanel\GOL.a(RadioButton.o)
                                                  H:\PIC\TestEx16\RPanel\GOL.a(CheckBox.o)
                                                  H:\PIC\TestEx16\RPanel\GOL.a(ListBox.o)
                                                  H:\PIC\TestEx16\RPanel\GOL.a(StaticText.o)
                                                  H:\PIC\TestEx16\RPanel\GOL.a(Button.o)
                                                  H:\PIC\TestEx16\RPanel\GOL.a(RoundDial.o)
                                                  H:\PIC\TestEx16\RPanel\GOL.a(Window.o)
                                                  H:\PIC\TestEx16\RPanel\GOL.a(GOL.o)
                                                  H:\PIC\TestEx16\RPanel\GOL.a(Primitive.o)
                                                  H:\PIC\TestEx16\RPanel\Objects\ProgressBar.o
                                                  H:\PIC\TestEx16\RPanel\Objects\makePage.o
                                                  H:\PIC\TestEx16\RPanel\Objects\TouchScreen.o
_const_length                                     H:\PIC\TestEx16\RPanel\Output\RPanel.cof
                                                  i:/usb/microchip/mplab c30/bin/../lib\libpic30-coff.a(crt0.o)
                                                  i:/usb/microchip/mplab c30/bin/../lib\libpic30-coff.a(crt1.o)
_const_psvpage                                    H:\PIC\TestEx16\RPanel\Output\RPanel.cof
                                                  i:/usb/microchip/mplab c30/bin/../lib\libpic30-coff.a(crt0.o)
                                                  i:/usb/microchip/mplab c30/bin/../lib\libpic30-coff.a(crt1.o)
                                                  H:\PIC\TestEx16\RPanel\Objects\TouchScreen.o
_cursorX                                          H:\PIC\TestEx16\RPanel\GOL.a(Primitive.o)
                                                  H:\PIC\TestEx16\RPanel\GOL.a(Meter.o)
                                                  H:\PIC\TestEx16\RPanel\GOL.a(GroupBox.o)
                                                  H:\PIC\TestEx16\RPanel\GOL.a(EditBox.o)
                                                  H:\PIC\TestEx16\RPanel\GOL.a(RadioButton.o)
                                                  H:\PIC\TestEx16\RPanel\GOL.a(CheckBox.o)
                                                  H:\PIC\TestEx16\RPanel\GOL.a(ListBox.o)
                                                  H:\PIC\TestEx16\RPanel\GOL.a(StaticText.o)
                                                  H:\PIC\TestEx16\RPanel\GOL.a(Button.o)
                                                  H:\PIC\TestEx16\RPanel\GOL.a(Window.o)
                                                  H:\PIC\TestEx16\RPanel\Objects\ProgressBar.o
_cursorY                                          H:\PIC\TestEx16\RPanel\GOL.a(Primitive.o)
                                                  H:\PIC\TestEx16\RPanel\GOL.a(Meter.o)
                                                  H:\PIC\TestEx16\RPanel\GOL.a(GroupBox.o)
                                                  H:\PIC\TestEx16\RPanel\GOL.a(EditBox.o)
                                                  H:\PIC\TestEx16\RPanel\GOL.a(RadioButton.o)
                                                  H:\PIC\TestEx16\RPanel\GOL.a(CheckBox.o)
                                                  H:\PIC\TestEx16\RPanel\GOL.a(ListBox.o)
                                                  H:\PIC\TestEx16\RPanel\GOL.a(StaticText.o)
                                                  H:\PIC\TestEx16\RPanel\GOL.a(Button.o)
                                                  H:\PIC\TestEx16\RPanel\GOL.a(Window.o)
                                                  H:\PIC\TestEx16\RPanel\Objects\ProgressBar.o
_data_init                                        i:/usb/microchip/mplab c30/bin/../lib\libpic30-coff.a(crt0.o)
_dinit_tbloffset                                  H:\PIC\TestEx16\RPanel\Output\RPanel.cof
                                                  i:/usb/microchip/mplab c30/bin/../lib\libpic30-coff.a(crt0.o)
_dinit_tblpage                                    H:\PIC\TestEx16\RPanel\Output\RPanel.cof
                                                  i:/usb/microchip/mplab c30/bin/../lib\libpic30-coff.a(crt0.o)
_eheap                                            H:\PIC\TestEx16\RPanel\Output\RPanel.cof
                                                  i:/usb/microchip/mplab c30/bin/../lib\libpic30-coff.a(brk.o)
_fPropagateNaN                                    i:/usb/microchip/mplab c30/bin/../lib\libm-coff.a(futil.o)
                                                  i:/usb/microchip/mplab c30/bin/../lib\libm-coff.a(fmodrem.o)
                                                  i:/usb/microchip/mplab c30/bin/../lib\libm-coff.a(addsf3.o)
                                                  i:/usb/microchip/mplab c30/bin/../lib\libm-coff.a(divsf3.o)
                                                  i:/usb/microchip/mplab c30/bin/../lib\libm-coff.a(mulsf3.o)
_fbopExit                                         i:/usb/microchip/mplab c30/bin/../lib\libm-coff.a(futil.o)
                                                  i:/usb/microchip/mplab c30/bin/../lib\libm-coff.a(fmodrem.o)
                                                  i:/usb/microchip/mplab c30/bin/../lib\libm-coff.a(addsf3.o)
                                                  i:/usb/microchip/mplab c30/bin/../lib\libm-coff.a(divsf3.o)
                                                  i:/usb/microchip/mplab c30/bin/../lib\libm-coff.a(mulsf3.o)
                                                  i:/usb/microchip/mplab c30/bin/../lib\libm-coff.a(sqrtf.o)
_fbopReturnNaN                                    i:/usb/microchip/mplab c30/bin/../lib\libm-coff.a(futil.o)
                                                  i:/usb/microchip/mplab c30/bin/../lib\libm-coff.a(fmodrem.o)
                                                  i:/usb/microchip/mplab c30/bin/../lib\libm-coff.a(addsf3.o)
                                                  i:/usb/microchip/mplab c30/bin/../lib\libm-coff.a(divsf3.o)
                                                  i:/usb/microchip/mplab c30/bin/../lib\libm-coff.a(mulsf3.o)
_fcompare                                         i:/usb/microchip/mplab c30/bin/../lib\libm-coff.a(fcompare.o)
                                                  i:/usb/microchip/mplab c30/bin/../lib\libm-coff.a(feqltle.o)
_fmodrem                                          i:/usb/microchip/mplab c30/bin/../lib\libm-coff.a(fmodrem.o)
                                                  i:/usb/microchip/mplab c30/bin/../lib\libm-coff.a(fmodf.o)
_font                                             H:\PIC\TestEx16\RPanel\GOL.a(Primitive.o)
_fontFirstChar                                    H:\PIC\TestEx16\RPanel\GOL.a(Primitive.o)
_fontHeight                                       H:\PIC\TestEx16\RPanel\GOL.a(Primitive.o)
_fontLastChar                                     H:\PIC\TestEx16\RPanel\GOL.a(Primitive.o)
_fpack                                            i:/usb/microchip/mplab c30/bin/../lib\libm-coff.a(fpack.o)
                                                  i:/usb/microchip/mplab c30/bin/../lib\libm-coff.a(fmodrem.o)
                                                  i:/usb/microchip/mplab c30/bin/../lib\libm-coff.a(addsf3.o)
                                                  i:/usb/microchip/mplab c30/bin/../lib\libm-coff.a(divsf3.o)
                                                  i:/usb/microchip/mplab c30/bin/../lib\libm-coff.a(mulsf3.o)
                                                  i:/usb/microchip/mplab c30/bin/../lib\libm-coff.a(sqrtf.o)
                                                  i:/usb/microchip/mplab c30/bin/../lib\libm-coff.a(floatsisf.o)
_funpack                                          i:/usb/microchip/mplab c30/bin/../lib\libm-coff.a(funpack.o)
                                                  i:/usb/microchip/mplab c30/bin/../lib\libm-coff.a(sincosf.o)
                                                  i:/usb/microchip/mplab c30/bin/../lib\libm-coff.a(funpack2.o)
                                                  i:/usb/microchip/mplab c30/bin/../lib\libm-coff.a(fixsfsi.o)
                                                  i:/usb/microchip/mplab c30/bin/../lib\libm-coff.a(sqrtf.o)
_funpack2                                         i:/usb/microchip/mplab c30/bin/../lib\libm-coff.a(funpack2.o)
                                                  i:/usb/microchip/mplab c30/bin/../lib\libm-coff.a(fmodrem.o)
                                                  i:/usb/microchip/mplab c30/bin/../lib\libm-coff.a(fcompare.o)
                                                  i:/usb/microchip/mplab c30/bin/../lib\libm-coff.a(addsf3.o)
                                                  i:/usb/microchip/mplab c30/bin/../lib\libm-coff.a(divsf3.o)
                                                  i:/usb/microchip/mplab c30/bin/../lib\libm-coff.a(mulsf3.o)
_heap                                             H:\PIC\TestEx16\RPanel\Output\RPanel.cof
                                                  i:/usb/microchip/mplab c30/bin/../lib\libpic30-coff.a(brk.o)
_lineThickness                                    H:\PIC\TestEx16\RPanel\GOL.a(Primitive.o)
                                                  H:\PIC\TestEx16\RPanel\GOL.a(Meter.o)
_lineType                                         H:\PIC\TestEx16\RPanel\GOL.a(Primitive.o)
                                                  H:\PIC\TestEx16\RPanel\GOL.a(Picture.o)
                                                  H:\PIC\TestEx16\RPanel\GOL.a(Slider.o)
                                                  H:\PIC\TestEx16\RPanel\GOL.a(RadioButton.o)
                                                  H:\PIC\TestEx16\RPanel\GOL.a(CheckBox.o)
                                                  H:\PIC\TestEx16\RPanel\GOL.a(ListBox.o)
                                                  H:\PIC\TestEx16\RPanel\GOL.a(Button.o)
_pDefaultGolScheme                                H:\PIC\TestEx16\RPanel\GOL.a(GOL.o)
                                                  H:\PIC\TestEx16\RPanel\GOL.a(CustomControlDemo.o)
                                                  H:\PIC\TestEx16\RPanel\GOL.a(Meter.o)
                                                  H:\PIC\TestEx16\RPanel\GOL.a(GroupBox.o)
                                                  H:\PIC\TestEx16\RPanel\GOL.a(Picture.o)
                                                  H:\PIC\TestEx16\RPanel\GOL.a(Slider.o)
                                                  H:\PIC\TestEx16\RPanel\GOL.a(EditBox.o)
                                                  H:\PIC\TestEx16\RPanel\GOL.a(RadioButton.o)
                                                  H:\PIC\TestEx16\RPanel\GOL.a(CheckBox.o)
                                                  H:\PIC\TestEx16\RPanel\GOL.a(ListBox.o)
                                                  H:\PIC\TestEx16\RPanel\GOL.a(StaticText.o)
                                                  H:\PIC\TestEx16\RPanel\GOL.a(Button.o)
                                                  H:\PIC\TestEx16\RPanel\GOL.a(RoundDial.o)
                                                  H:\PIC\TestEx16\RPanel\GOL.a(Window.o)
                                                  H:\PIC\TestEx16\RPanel\Objects\ProgressBar.o
_pGolObjects                                      H:\PIC\TestEx16\RPanel\GOL.a(GOL.o)
_pListButtons                                     H:\PIC\TestEx16\RPanel\GOL.a(RadioButton.o)
_pObjectFocused                                   H:\PIC\TestEx16\RPanel\GOL.a(GOL.o)
_pRpnlBitmap                                      H:\PIC\TestEx16\RPanel\GOL.a(GOL.o)
                                                  H:\PIC\TestEx16\RPanel\GOL.a(CustomControlDemo.o)
                                                  H:\PIC\TestEx16\RPanel\GOL.a(Meter.o)
                                                  H:\PIC\TestEx16\RPanel\GOL.a(Slider.o)
                                                  H:\PIC\TestEx16\RPanel\GOL.a(EditBox.o)
                                                  H:\PIC\TestEx16\RPanel\GOL.a(RadioButton.o)
                                                  H:\PIC\TestEx16\RPanel\GOL.a(CheckBox.o)
                                                  H:\PIC\TestEx16\RPanel\GOL.a(ListBox.o)
                                                  H:\PIC\TestEx16\RPanel\GOL.a(Button.o)
                                                  H:\PIC\TestEx16\RPanel\GOL.a(RoundDial.o)
                                                  H:\PIC\TestEx16\RPanel\GOL.a(Window.o)
                                                  H:\PIC\TestEx16\RPanel\Objects\ProgressBar.o
_psv_init                                         i:/usb/microchip/mplab c30/bin/../lib\libpic30-coff.a(crt0.o)
_reset                                            i:/usb/microchip/mplab c30/bin/../lib\libpic30-coff.a(crt0.o)
                                                  i:/usb/microchip/mplab c30/bin/../lib\libpic30-coff.a(crt1.o)
_resetALT                                         i:/usb/microchip/mplab c30/bin/../lib\libpic30-coff.a(crt1.o)
_resetPRI                                         i:/usb/microchip/mplab c30/bin/../lib\libpic30-coff.a(crt0.o)
_rpnlEmbossDkColor                                H:\PIC\TestEx16\RPanel\GOL.a(GOL.o)
                                                  H:\PIC\TestEx16\RPanel\GOL.a(CustomControlDemo.o)
                                                  H:\PIC\TestEx16\RPanel\GOL.a(Meter.o)
                                                  H:\PIC\TestEx16\RPanel\GOL.a(Slider.o)
                                                  H:\PIC\TestEx16\RPanel\GOL.a(EditBox.o)
                                                  H:\PIC\TestEx16\RPanel\GOL.a(RadioButton.o)
                                                  H:\PIC\TestEx16\RPanel\GOL.a(CheckBox.o)
                                                  H:\PIC\TestEx16\RPanel\GOL.a(ListBox.o)
                                                  H:\PIC\TestEx16\RPanel\GOL.a(Button.o)
                                                  H:\PIC\TestEx16\RPanel\GOL.a(RoundDial.o)
                                                  H:\PIC\TestEx16\RPanel\GOL.a(Window.o)
                                                  H:\PIC\TestEx16\RPanel\Objects\ProgressBar.o
_rpnlEmbossLtColor                                H:\PIC\TestEx16\RPanel\GOL.a(GOL.o)
                                                  H:\PIC\TestEx16\RPanel\GOL.a(CustomControlDemo.o)
                                                  H:\PIC\TestEx16\RPanel\GOL.a(Meter.o)
                                                  H:\PIC\TestEx16\RPanel\GOL.a(Slider.o)
                                                  H:\PIC\TestEx16\RPanel\GOL.a(EditBox.o)
                                                  H:\PIC\TestEx16\RPanel\GOL.a(RadioButton.o)
                                                  H:\PIC\TestEx16\RPanel\GOL.a(CheckBox.o)
                                                  H:\PIC\TestEx16\RPanel\GOL.a(ListBox.o)
                                                  H:\PIC\TestEx16\RPanel\GOL.a(Button.o)
                                                  H:\PIC\TestEx16\RPanel\GOL.a(RoundDial.o)
                                                  H:\PIC\TestEx16\RPanel\GOL.a(Window.o)
                                                  H:\PIC\TestEx16\RPanel\Objects\ProgressBar.o
